{
	"data": {
		"bytecode": {
			"linkReferences": {},
			"object": "60806040523480156200001157600080fd5b506040516200356938038062003569833981810160405281019062000037919062000222565b8282826040518060400160405280600581526020017f424f4f54590000000000000000000000000000000000000000000000000000008152506040518060400160405280600581526020017f424f4f54590000000000000000000000000000000000000000000000000000008152508160009081620000b79190620004ee565b508060019081620000c99190620004ee565b505050620000ec620000e06200011460201b60201c565b6200011c60201b60201c565b826008819055508160098190555080600b8190555042600c81905550505050505050620005d5565b600033905090565b6000600660009054906101000a900473ffffffffffffffffffffffffffffffffffffffff16905081600660006101000a81548173ffffffffffffffffffffffffffffffffffffffff021916908373ffffffffffffffffffffffffffffffffffffffff1602179055508173ffffffffffffffffffffffffffffffffffffffff168173ffffffffffffffffffffffffffffffffffffffff167f8be0079c531659141344cd1fd0a4f28419497f9722a3daafe3b4186f6b6457e060405160405180910390a35050565b600080fd5b6000819050919050565b620001fc81620001e7565b81146200020857600080fd5b50565b6000815190506200021c81620001f1565b92915050565b6000806000606084860312156200023e576200023d620001e2565b5b60006200024e868287016200020b565b935050602062000261868287016200020b565b925050604062000274868287016200020b565b9150509250925092565b600081519050919050565b7f4e487b7100000000000000000000000000000000000000000000000000000000600052604160045260246000fd5b7f4e487b7100000000000000000000000000000000000000000000000000000000600052602260045260246000fd5b600060028204905060018216806200030057607f821691505b602082108103620003165762000315620002b8565b5b50919050565b60008190508160005260206000209050919050565b60006020601f8301049050919050565b600082821b905092915050565b600060088302620003807fffffffffffffffffffffffffffffffffffffffffffffffffffffffffffffffff8262000341565b6200038c868362000341565b95508019841693508086168417925050509392505050565b6000819050919050565b6000620003cf620003c9620003c384620001e7565b620003a4565b620001e7565b9050919050565b6000819050919050565b620003eb83620003ae565b62000403620003fa82620003d6565b8484546200034e565b825550505050565b600090565b6200041a6200040b565b62000427818484620003e0565b505050565b5b818110156200044f576200044360008262000410565b6001810190506200042d565b5050565b601f8211156200049e5762000468816200031c565b620004738462000331565b8101602085101562000483578190505b6200049b620004928562000331565b8301826200042c565b50505b505050565b600082821c905092915050565b6000620004c360001984600802620004a3565b1980831691505092915050565b6000620004de8383620004b0565b9150826002028217905092915050565b620004f9826200027e565b67ffffffffffffffff81111562000515576200051462000289565b5b620005218254620002e7565b6200052e82828562000453565b600060209050601f83116001811462000566576000841562000551578287015190505b6200055d8582620004d0565b865550620005cd565b601f19841662000576866200031c565b60005b82811015620005a05784890151825560018201915060208501945060208101905062000579565b86831015620005c05784890151620005bc601f891682620004b0565b8355505b6001600288020188555050505b505050505050565b612f8480620005e56000396000f3fe6080604052600436106101665760003560e01c806370a08231116100d1578063b3ab66b01161008a578063dc33e68111610064578063dc33e6811461051f578063e985e9c51461055c578063f2fde38b14610599578063f51f96dd146105c257610166565b8063b3ab66b01461049d578063b88d4fde146104b9578063c87b56dd146104e257610166565b806370a082311461039f578063715018a6146103dc5780638bc35c2f146103f35780638da5cb5b1461041e57806395d89b4114610449578063a22cb4651461047457610166565b806323b872dd1161012357806323b872dd1461028f5780632913daa0146102b857806342842e0e146102e357806345c0f5331461030c5780636352211e146103375780636bb7b1d91461037457610166565b806301ffc9a71461016b578063055ad42e146101a857806306fdde03146101d3578063081812fc146101fe578063095ea7b31461023b57806318160ddd14610264575b600080fd5b34801561017757600080fd5b50610192600480360381019061018d9190611f89565b6105ed565b60405161019f9190611fd1565b60405180910390f35b3480156101b457600080fd5b506101bd6106cf565b6040516101ca9190612063565b60405180910390f35b3480156101df57600080fd5b506101e86106f8565b6040516101f5919061210e565b60405180910390f35b34801561020a57600080fd5b5061022560048036038101906102209190612166565b61078a565b60405161023291906121d4565b60405180910390f35b34801561024757600080fd5b50610262600480360381019061025d919061221b565b6107d0565b005b34801561027057600080fd5b506102796108e7565b604051610286919061226a565b60405180910390f35b34801561029b57600080fd5b506102b660048036038101906102b19190612285565b6108f8565b005b3480156102c457600080fd5b506102cd610958565b6040516102da919061226a565b60405180910390f35b3480156102ef57600080fd5b5061030a60048036038101906103059190612285565b61095e565b005b34801561031857600080fd5b5061032161097e565b60405161032e919061226a565b60405180910390f35b34801561034357600080fd5b5061035e60048036038101906103599190612166565b610984565b60405161036b91906121d4565b60405180910390f35b34801561038057600080fd5b50610389610a0a565b604051610396919061226a565b60405180910390f35b3480156103ab57600080fd5b506103c660048036038101906103c191906122d8565b610a10565b6040516103d3919061226a565b60405180910390f35b3480156103e857600080fd5b506103f1610ac7565b005b3480156103ff57600080fd5b50610408610adb565b604051610415919061226a565b60405180910390f35b34801561042a57600080fd5b50610433610ae1565b60405161044091906121d4565b60405180910390f35b34801561045557600080fd5b5061045e610b0b565b60405161046b919061210e565b60405180910390f35b34801561048057600080fd5b5061049b60048036038101906104969190612331565b610b9d565b005b6104b760048036038101906104b29190612166565b610bb3565b005b3480156104c557600080fd5b506104e060048036038101906104db91906124a6565b610d27565b005b3480156104ee57600080fd5b5061050960048036038101906105049190612166565b610d89565b604051610516919061210e565b60405180910390f35b34801561052b57600080fd5b50610546600480360381019061054191906122d8565b610df1565b604051610553919061226a565b60405180910390f35b34801561056857600080fd5b50610583600480360381019061057e9190612529565b610e03565b6040516105909190611fd1565b60405180910390f35b3480156105a557600080fd5b506105c060048036038101906105bb91906122d8565b610e97565b005b3480156105ce57600080fd5b506105d7610f1a565b6040516105e4919061226a565b60405180910390f35b60007f80ac58cd000000000000000000000000000000000000000000000000000000007bffffffffffffffffffffffffffffffffffffffffffffffffffffffff1916827bffffffffffffffffffffffffffffffffffffffffffffffffffffffff191614806106b857507f5b5e139f000000000000000000000000000000000000000000000000000000007bffffffffffffffffffffffffffffffffffffffffffffffffffffffff1916827bffffffffffffffffffffffffffffffffffffffffffffffffffffffff1916145b806106c857506106c782610f20565b5b9050919050565b600080600c5414806106e25750600c5442105b156106f057600090506106f5565b600190505b90565b60606000805461070790612598565b80601f016020809104026020016040519081016040528092919081815260200182805461073390612598565b80156107805780601f1061075557610100808354040283529160200191610780565b820191906000526020600020905b81548152906001019060200180831161076357829003601f168201915b5050505050905090565b600061079582610f8a565b6004600083815260200190815260200160002060009054906101000a900473ffffffffffffffffffffffffffffffffffffffff169050919050565b60006107db82610984565b90508073ffffffffffffffffffffffffffffffffffffffff168373ffffffffffffffffffffffffffffffffffffffff160361084b576040517f08c379a00000000000000000000000000000000000000000000000000000000081526004016108429061263b565b60405180910390fd5b8073ffffffffffffffffffffffffffffffffffffffff1661086a610fd5565b73ffffffffffffffffffffffffffffffffffffffff161480610899575061089881610893610fd5565b610e03565b5b6108d8576040517f08c379a00000000000000000000000000000000000000000000000000000000081526004016108cf906126cd565b60405180910390fd5b6108e28383610fdd565b505050565b60006108f36007611096565b905090565b610909610903610fd5565b826110a4565b610948576040517f08c379a000000000000000000000000000000000000000000000000000000000815260040161093f9061275f565b60405180910390fd5b610953838383611139565b505050565b60095481565b61097983838360405180602001604052806000815250610d27565b505050565b60085481565b60008061099083611432565b9050600073ffffffffffffffffffffffffffffffffffffffff168173ffffffffffffffffffffffffffffffffffffffff1603610a01576040517f08c379a00000000000000000000000000000000000000000000000000000000081526004016109f8906127cb565b60405180910390fd5b80915050919050565b600c5481565b60008073ffffffffffffffffffffffffffffffffffffffff168273ffffffffffffffffffffffffffffffffffffffff1603610a80576040517f08c379a0000000000000000000000000000000000000000000000000000000008152600401610a779061285d565b60405180910390fd5b600360008373ffffffffffffffffffffffffffffffffffffffff1673ffffffffffffffffffffffffffffffffffffffff168152602001908152602001600020549050919050565b610acf61146f565b610ad960006114ed565b565b600b5481565b6000600660009054906101000a900473ffffffffffffffffffffffffffffffffffffffff16905090565b606060018054610b1a90612598565b80601f0160208091040260200160405190810160405280929190818152602001828054610b4690612598565b8015610b935780601f10610b6857610100808354040283529160200191610b93565b820191906000526020600020905b815481529060010190602001808311610b7657829003601f168201915b5050505050905090565b610baf610ba8610fd5565b83836115b3565b5050565b600080339050803b91506000821115610bf8576040517fc167918400000000000000000000000000000000000000000000000000000000815260040160405180910390fd5b6001806001811115610c0d57610c0c611fec565b5b610c156106cf565b6001811115610c2757610c26611fec565b5b14610c5e576040517f38df794b00000000000000000000000000000000000000000000000000000000815260040160405180910390fd5b600b5484610c6b33610df1565b610c7591906128ac565b1115610cad576040517fd798adec00000000000000000000000000000000000000000000000000000000815260040160405180910390fd5b60085484610cb96108e7565b610cc391906128ac565b1115610cfb576040517f3dbb8d4600000000000000000000000000000000000000000000000000000000815260040160405180910390fd5b600084600a54610d0b91906128e0565b9050610d17338661171f565b610d208161175f565b5050505050565b610d38610d32610fd5565b836110a4565b610d77576040517f08c379a0000000000000000000000000000000000000000000000000000000008152600401610d6e9061275f565b60405180910390fd5b610d838484848461185f565b50505050565b6060610d9482610f8a565b6000610d9e6118bb565b90506000815111610dbe5760405180602001604052806000815250610de9565b80610dc8846118d2565b604051602001610dd992919061295e565b6040516020818303038152906040525b915050919050565b6000610dfc82610a10565b9050919050565b6000600560008473ffffffffffffffffffffffffffffffffffffffff1673ffffffffffffffffffffffffffffffffffffffff16815260200190815260200160002060008373ffffffffffffffffffffffffffffffffffffffff1673ffffffffffffffffffffffffffffffffffffffff16815260200190815260200160002060009054906101000a900460ff16905092915050565b610e9f61146f565b600073ffffffffffffffffffffffffffffffffffffffff168173ffffffffffffffffffffffffffffffffffffffff1603610f0e576040517f08c379a0000000000000000000000000000000000000000000000000000000008152600401610f05906129f4565b60405180910390fd5b610f17816114ed565b50565b600a5481565b60007f01ffc9a7000000000000000000000000000000000000000000000000000000007bffffffffffffffffffffffffffffffffffffffffffffffffffffffff1916827bffffffffffffffffffffffffffffffffffffffffffffffffffffffff1916149050919050565b610f93816119a0565b610fd2576040517f08c379a0000000000000000000000000000000000000000000000000000000008152600401610fc9906127cb565b60405180910390fd5b50565b600033905090565b816004600083815260200190815260200160002060006101000a81548173ffffffffffffffffffffffffffffffffffffffff021916908373ffffffffffffffffffffffffffffffffffffffff160217905550808273ffffffffffffffffffffffffffffffffffffffff1661105083610984565b73ffffffffffffffffffffffffffffffffffffffff167f8c5be1e5ebec7d5bd14f71427d1e84f3dd0314c0f7b2291e5b200ac8c7c3b92560405160405180910390a45050565b600081600001549050919050565b6000806110b083610984565b90508073ffffffffffffffffffffffffffffffffffffffff168473ffffffffffffffffffffffffffffffffffffffff1614806110f257506110f18185610e03565b5b8061113057508373ffffffffffffffffffffffffffffffffffffffff166111188461078a565b73ffffffffffffffffffffffffffffffffffffffff16145b91505092915050565b8273ffffffffffffffffffffffffffffffffffffffff1661115982610984565b73ffffffffffffffffffffffffffffffffffffffff16146111af576040517f08c379a00000000000000000000000000000000000000000000000000000000081526004016111a690612a86565b60405180910390fd5b600073ffffffffffffffffffffffffffffffffffffffff168273ffffffffffffffffffffffffffffffffffffffff160361121e576040517f08c379a000000000000000000000000000000000000000000000000000000000815260040161121590612b18565b60405180910390fd5b61122b83838360016119e1565b8273ffffffffffffffffffffffffffffffffffffffff1661124b82610984565b73ffffffffffffffffffffffffffffffffffffffff16146112a1576040517f08c379a000000000000000000000000000000000000000000000000000000000815260040161129890612a86565b60405180910390fd5b6004600082815260200190815260200160002060006101000a81549073ffffffffffffffffffffffffffffffffffffffff02191690556001600360008573ffffffffffffffffffffffffffffffffffffffff1673ffffffffffffffffffffffffffffffffffffffff168152602001908152602001600020600082825403925050819055506001600360008473ffffffffffffffffffffffffffffffffffffffff1673ffffffffffffffffffffffffffffffffffffffff16815260200190815260200160002060008282540192505081905550816002600083815260200190815260200160002060006101000a81548173ffffffffffffffffffffffffffffffffffffffff021916908373ffffffffffffffffffffffffffffffffffffffff160217905550808273ffffffffffffffffffffffffffffffffffffffff168473ffffffffffffffffffffffffffffffffffffffff167fddf252ad1be2c89b69c2b068fc378daa952ba7f163c4a11628f55a4df523b3ef60405160405180910390a461142d83838360016119e7565b505050565b60006002600083815260200190815260200160002060009054906101000a900473ffffffffffffffffffffffffffffffffffffffff169050919050565b611477610fd5565b73ffffffffffffffffffffffffffffffffffffffff16611495610ae1565b73ffffffffffffffffffffffffffffffffffffffff16146114eb576040517f08c379a00000000000000000000000000000000000000000000000000000000081526004016114e290612b84565b60405180910390fd5b565b6000600660009054906101000a900473ffffffffffffffffffffffffffffffffffffffff16905081600660006101000a81548173ffffffffffffffffffffffffffffffffffffffff021916908373ffffffffffffffffffffffffffffffffffffffff1602179055508173ffffffffffffffffffffffffffffffffffffffff168173ffffffffffffffffffffffffffffffffffffffff167f8be0079c531659141344cd1fd0a4f28419497f9722a3daafe3b4186f6b6457e060405160405180910390a35050565b8173ffffffffffffffffffffffffffffffffffffffff168373ffffffffffffffffffffffffffffffffffffffff1603611621576040517f08c379a000000000000000000000000000000000000000000000000000000000815260040161161890612bf0565b60405180910390fd5b80600560008573ffffffffffffffffffffffffffffffffffffffff1673ffffffffffffffffffffffffffffffffffffffff16815260200190815260200160002060008473ffffffffffffffffffffffffffffffffffffffff1673ffffffffffffffffffffffffffffffffffffffff16815260200190815260200160002060006101000a81548160ff0219169083151502179055508173ffffffffffffffffffffffffffffffffffffffff168373ffffffffffffffffffffffffffffffffffffffff167f17307eab39ab6107e8899845ad3d59bd9653f200f220920489ca2b5937696c31836040516117129190611fd1565b60405180910390a3505050565b60005b8181101561175a5761173d836117386007611096565b6119ed565b6117476007611c0a565b808061175290612c10565b915050611722565b505050565b803410156117a457346040517f06e0c3ff00000000000000000000000000000000000000000000000000000000815260040161179b919061226a565b60405180910390fd5b8034111561185c5760003373ffffffffffffffffffffffffffffffffffffffff1682346117d19190612c58565b6040516117dd90612cbd565b60006040518083038185875af1925050503d806000811461181a576040519150601f19603f3d011682016040523d82523d6000602084013e61181f565b606091505b505090508061185a576040517feaa7983400000000000000000000000000000000000000000000000000000000815260040160405180910390fd5b505b50565b61186a848484611139565b61187684848484611c20565b6118b5576040517f08c379a00000000000000000000000000000000000000000000000000000000081526004016118ac90612d44565b60405180910390fd5b50505050565b606060405180602001604052806000815250905090565b6060600060016118e184611da7565b01905060008167ffffffffffffffff811115611900576118ff61237b565b5b6040519080825280601f01601f1916602001820160405280156119325781602001600182028036833780820191505090505b509050600082602001820190505b600115611995578080600190039150507f3031323334353637383961626364656600000000000000000000000000000000600a86061a8153600a858161198957611988612d64565b5b04945060008503611940575b819350505050919050565b60008073ffffffffffffffffffffffffffffffffffffffff166119c283611432565b73ffffffffffffffffffffffffffffffffffffffff1614159050919050565b50505050565b50505050565b600073ffffffffffffffffffffffffffffffffffffffff168273ffffffffffffffffffffffffffffffffffffffff1603611a5c576040517f08c379a0000000000000000000000000000000000000000000000000000000008152600401611a5390612ddf565b60405180910390fd5b611a65816119a0565b15611aa5576040517f08c379a0000000000000000000000000000000000000000000000000000000008152600401611a9c90612e4b565b60405180910390fd5b611ab36000838360016119e1565b611abc816119a0565b15611afc576040517f08c379a0000000000000000000000000000000000000000000000000000000008152600401611af390612e4b565b60405180910390fd5b6001600360008473ffffffffffffffffffffffffffffffffffffffff1673ffffffffffffffffffffffffffffffffffffffff16815260200190815260200160002060008282540192505081905550816002600083815260200190815260200160002060006101000a81548173ffffffffffffffffffffffffffffffffffffffff021916908373ffffffffffffffffffffffffffffffffffffffff160217905550808273ffffffffffffffffffffffffffffffffffffffff16600073ffffffffffffffffffffffffffffffffffffffff167fddf252ad1be2c89b69c2b068fc378daa952ba7f163c4a11628f55a4df523b3ef60405160405180910390a4611c066000838360016119e7565b5050565b6001816000016000828254019250508190555050565b6000611c418473ffffffffffffffffffffffffffffffffffffffff16611efa565b15611d9a578373ffffffffffffffffffffffffffffffffffffffff1663150b7a02611c6a610fd5565b8786866040518563ffffffff1660e01b8152600401611c8c9493929190612ec0565b6020604051808303816000875af1925050508015611cc857506040513d601f19601f82011682018060405250810190611cc59190612f21565b60015b611d4a573d8060008114611cf8576040519150601f19603f3d011682016040523d82523d6000602084013e611cfd565b606091505b506000815103611d42576040517f08c379a0000000000000000000000000000000000000000000000000000000008152600401611d3990612d44565b60405180910390fd5b805181602001fd5b63150b7a0260e01b7bffffffffffffffffffffffffffffffffffffffffffffffffffffffff1916817bffffffffffffffffffffffffffffffffffffffffffffffffffffffff191614915050611d9f565b600190505b949350505050565b600080600090507a184f03e93ff9f4daa797ed6e38ed64bf6a1f0100000000000000008310611e05577a184f03e93ff9f4daa797ed6e38ed64bf6a1f0100000000000000008381611dfb57611dfa612d64565b5b0492506040810190505b6d04ee2d6d415b85acef81000000008310611e42576d04ee2d6d415b85acef81000000008381611e3857611e37612d64565b5b0492506020810190505b662386f26fc100008310611e7157662386f26fc100008381611e6757611e66612d64565b5b0492506010810190505b6305f5e1008310611e9a576305f5e1008381611e9057611e8f612d64565b5b0492506008810190505b6127108310611ebf576127108381611eb557611eb4612d64565b5b0492506004810190505b60648310611ee25760648381611ed857611ed7612d64565b5b0492506002810190505b600a8310611ef1576001810190505b80915050919050565b6000808273ffffffffffffffffffffffffffffffffffffffff163b119050919050565b6000604051905090565b600080fd5b600080fd5b60007fffffffff0000000000000000000000000000000000000000000000000000000082169050919050565b611f6681611f31565b8114611f7157600080fd5b50565b600081359050611f8381611f5d565b92915050565b600060208284031215611f9f57611f9e611f27565b5b6000611fad84828501611f74565b91505092915050565b60008115159050919050565b611fcb81611fb6565b82525050565b6000602082019050611fe66000830184611fc2565b92915050565b7f4e487b7100000000000000000000000000000000000000000000000000000000600052602160045260246000fd5b6002811061202c5761202b611fec565b5b50565b600081905061203d8261201b565b919050565b600061204d8261202f565b9050919050565b61205d81612042565b82525050565b60006020820190506120786000830184612054565b92915050565b600081519050919050565b600082825260208201905092915050565b60005b838110156120b857808201518184015260208101905061209d565b60008484015250505050565b6000601f19601f8301169050919050565b60006120e08261207e565b6120ea8185612089565b93506120fa81856020860161209a565b612103816120c4565b840191505092915050565b6000602082019050818103600083015261212881846120d5565b905092915050565b6000819050919050565b61214381612130565b811461214e57600080fd5b50565b6000813590506121608161213a565b92915050565b60006020828403121561217c5761217b611f27565b5b600061218a84828501612151565b91505092915050565b600073ffffffffffffffffffffffffffffffffffffffff82169050919050565b60006121be82612193565b9050919050565b6121ce816121b3565b82525050565b60006020820190506121e960008301846121c5565b92915050565b6121f8816121b3565b811461220357600080fd5b50565b600081359050612215816121ef565b92915050565b6000806040838503121561223257612231611f27565b5b600061224085828601612206565b925050602061225185828601612151565b9150509250929050565b61226481612130565b82525050565b600060208201905061227f600083018461225b565b92915050565b60008060006060848603121561229e5761229d611f27565b5b60006122ac86828701612206565b93505060206122bd86828701612206565b92505060406122ce86828701612151565b9150509250925092565b6000602082840312156122ee576122ed611f27565b5b60006122fc84828501612206565b91505092915050565b61230e81611fb6565b811461231957600080fd5b50565b60008135905061232b81612305565b92915050565b6000806040838503121561234857612347611f27565b5b600061235685828601612206565b92505060206123678582860161231c565b9150509250929050565b600080fd5b600080fd5b7f4e487b7100000000000000000000000000000000000000000000000000000000600052604160045260246000fd5b6123b3826120c4565b810181811067ffffffffffffffff821117156123d2576123d161237b565b5b80604052505050565b60006123e5611f1d565b90506123f182826123aa565b919050565b600067ffffffffffffffff8211156124115761241061237b565b5b61241a826120c4565b9050602081019050919050565b82818337600083830152505050565b6000612449612444846123f6565b6123db565b90508281526020810184848401111561246557612464612376565b5b612470848285612427565b509392505050565b600082601f83011261248d5761248c612371565b5b813561249d848260208601612436565b91505092915050565b600080600080608085870312156124c0576124bf611f27565b5b60006124ce87828801612206565b94505060206124df87828801612206565b93505060406124f087828801612151565b925050606085013567ffffffffffffffff81111561251157612510611f2c565b5b61251d87828801612478565b91505092959194509250565b600080604083850312156125405761253f611f27565b5b600061254e85828601612206565b925050602061255f85828601612206565b9150509250929050565b7f4e487b7100000000000000000000000000000000000000000000000000000000600052602260045260246000fd5b600060028204905060018216806125b057607f821691505b6020821081036125c3576125c2612569565b5b50919050565b7f4552433732313a20617070726f76616c20746f2063757272656e74206f776e6560008201527f7200000000000000000000000000000000000000000000000000000000000000602082015250565b6000612625602183612089565b9150612630826125c9565b604082019050919050565b6000602082019050818103600083015261265481612618565b9050919050565b7f4552433732313a20617070726f76652063616c6c6572206973206e6f7420746f60008201527f6b656e206f776e6572206f7220617070726f76656420666f7220616c6c000000602082015250565b60006126b7603d83612089565b91506126c28261265b565b604082019050919050565b600060208201905081810360008301526126e6816126aa565b9050919050565b7f4552433732313a2063616c6c6572206973206e6f7420746f6b656e206f776e6560008201527f72206f7220617070726f76656400000000000000000000000000000000000000602082015250565b6000612749602d83612089565b9150612754826126ed565b604082019050919050565b600060208201905081810360008301526127788161273c565b9050919050565b7f4552433732313a20696e76616c696420746f6b656e2049440000000000000000600082015250565b60006127b5601883612089565b91506127c08261277f565b602082019050919050565b600060208201905081810360008301526127e4816127a8565b9050919050565b7f4552433732313a2061646472657373207a65726f206973206e6f74206120766160008201527f6c6964206f776e65720000000000000000000000000000000000000000000000602082015250565b6000612847602983612089565b9150612852826127eb565b604082019050919050565b600060208201905081810360008301526128768161283a565b9050919050565b7f4e487b7100000000000000000000000000000000000000000000000000000000600052601160045260246000fd5b60006128b782612130565b91506128c283612130565b92508282019050808211156128da576128d961287d565b5b92915050565b60006128eb82612130565b91506128f683612130565b925082820261290481612130565b9150828204841483151761291b5761291a61287d565b5b5092915050565b600081905092915050565b60006129388261207e565b6129428185612922565b935061295281856020860161209a565b80840191505092915050565b600061296a828561292d565b9150612976828461292d565b91508190509392505050565b7f4f776e61626c653a206e6577206f776e657220697320746865207a65726f206160008201527f6464726573730000000000000000000000000000000000000000000000000000602082015250565b60006129de602683612089565b91506129e982612982565b604082019050919050565b60006020820190508181036000830152612a0d816129d1565b9050919050565b7f4552433732313a207472616e736665722066726f6d20696e636f72726563742060008201527f6f776e6572000000000000000000000000000000000000000000000000000000602082015250565b6000612a70602583612089565b9150612a7b82612a14565b604082019050919050565b60006020820190508181036000830152612a9f81612a63565b9050919050565b7f4552433732313a207472616e7366657220746f20746865207a65726f2061646460008201527f7265737300000000000000000000000000000000000000000000000000000000602082015250565b6000612b02602483612089565b9150612b0d82612aa6565b604082019050919050565b60006020820190508181036000830152612b3181612af5565b9050919050565b7f4f776e61626c653a2063616c6c6572206973206e6f7420746865206f776e6572600082015250565b6000612b6e602083612089565b9150612b7982612b38565b602082019050919050565b60006020820190508181036000830152612b9d81612b61565b9050919050565b7f4552433732313a20617070726f766520746f2063616c6c657200000000000000600082015250565b6000612bda601983612089565b9150612be582612ba4565b602082019050919050565b60006020820190508181036000830152612c0981612bcd565b9050919050565b6000612c1b82612130565b91507fffffffffffffffffffffffffffffffffffffffffffffffffffffffffffffffff8203612c4d57612c4c61287d565b5b600182019050919050565b6000612c6382612130565b9150612c6e83612130565b9250828203905081811115612c8657612c8561287d565b5b92915050565b600081905092915050565b50565b6000612ca7600083612c8c565b9150612cb282612c97565b600082019050919050565b6000612cc882612c9a565b9150819050919050565b7f4552433732313a207472616e7366657220746f206e6f6e20455243373231526560008201527f63656976657220696d706c656d656e7465720000000000000000000000000000602082015250565b6000612d2e603283612089565b9150612d3982612cd2565b604082019050919050565b60006020820190508181036000830152612d5d81612d21565b9050919050565b7f4e487b7100000000000000000000000000000000000000000000000000000000600052601260045260246000fd5b7f4552433732313a206d696e7420746f20746865207a65726f2061646472657373600082015250565b6000612dc9602083612089565b9150612dd482612d93565b602082019050919050565b60006020820190508181036000830152612df881612dbc565b9050919050565b7f4552433732313a20746f6b656e20616c7265616479206d696e74656400000000600082015250565b6000612e35601c83612089565b9150612e4082612dff565b602082019050919050565b60006020820190508181036000830152612e6481612e28565b9050919050565b600081519050919050565b600082825260208201905092915050565b6000612e9282612e6b565b612e9c8185612e76565b9350612eac81856020860161209a565b612eb5816120c4565b840191505092915050565b6000608082019050612ed560008301876121c5565b612ee260208301866121c5565b612eef604083018561225b565b8181036060830152612f018184612e87565b905095945050505050565b600081519050612f1b81611f5d565b92915050565b600060208284031215612f3757612f36611f27565b5b6000612f4584828501612f0c565b9150509291505056fea2646970667358221220616c7ec18dba238ffc4640fa041e6e8922a49df7862f89fc752c5c6ff07d1a9864736f6c63430008120033",
			"opcodes": "PUSH1 0x80 PUSH1 0x40 MSTORE CALLVALUE DUP1 ISZERO PUSH3 0x11 JUMPI PUSH1 0x0 DUP1 REVERT JUMPDEST POP PUSH1 0x40 MLOAD PUSH3 0x3569 CODESIZE SUB DUP1 PUSH3 0x3569 DUP4 CODECOPY DUP2 DUP2 ADD PUSH1 0x40 MSTORE DUP2 ADD SWAP1 PUSH3 0x37 SWAP2 SWAP1 PUSH3 0x222 JUMP JUMPDEST DUP3 DUP3 DUP3 PUSH1 0x40 MLOAD DUP1 PUSH1 0x40 ADD PUSH1 0x40 MSTORE DUP1 PUSH1 0x5 DUP2 MSTORE PUSH1 0x20 ADD PUSH32 0x424F4F5459000000000000000000000000000000000000000000000000000000 DUP2 MSTORE POP PUSH1 0x40 MLOAD DUP1 PUSH1 0x40 ADD PUSH1 0x40 MSTORE DUP1 PUSH1 0x5 DUP2 MSTORE PUSH1 0x20 ADD PUSH32 0x424F4F5459000000000000000000000000000000000000000000000000000000 DUP2 MSTORE POP DUP2 PUSH1 0x0 SWAP1 DUP2 PUSH3 0xB7 SWAP2 SWAP1 PUSH3 0x4EE JUMP JUMPDEST POP DUP1 PUSH1 0x1 SWAP1 DUP2 PUSH3 0xC9 SWAP2 SWAP1 PUSH3 0x4EE JUMP JUMPDEST POP POP POP PUSH3 0xEC PUSH3 0xE0 PUSH3 0x114 PUSH1 0x20 SHL PUSH1 0x20 SHR JUMP JUMPDEST PUSH3 0x11C PUSH1 0x20 SHL PUSH1 0x20 SHR JUMP JUMPDEST DUP3 PUSH1 0x8 DUP2 SWAP1 SSTORE POP DUP2 PUSH1 0x9 DUP2 SWAP1 SSTORE POP DUP1 PUSH1 0xB DUP2 SWAP1 SSTORE POP TIMESTAMP PUSH1 0xC DUP2 SWAP1 SSTORE POP POP POP POP POP POP POP PUSH3 0x5D5 JUMP JUMPDEST PUSH1 0x0 CALLER SWAP1 POP SWAP1 JUMP JUMPDEST PUSH1 0x0 PUSH1 0x6 PUSH1 0x0 SWAP1 SLOAD SWAP1 PUSH2 0x100 EXP SWAP1 DIV PUSH20 0xFFFFFFFFFFFFFFFFFFFFFFFFFFFFFFFFFFFFFFFF AND SWAP1 POP DUP2 PUSH1 0x6 PUSH1 0x0 PUSH2 0x100 EXP DUP2 SLOAD DUP2 PUSH20 0xFFFFFFFFFFFFFFFFFFFFFFFFFFFFFFFFFFFFFFFF MUL NOT AND SWAP1 DUP4 PUSH20 0xFFFFFFFFFFFFFFFFFFFFFFFFFFFFFFFFFFFFFFFF AND MUL OR SWAP1 SSTORE POP DUP2 PUSH20 0xFFFFFFFFFFFFFFFFFFFFFFFFFFFFFFFFFFFFFFFF AND DUP2 PUSH20 0xFFFFFFFFFFFFFFFFFFFFFFFFFFFFFFFFFFFFFFFF AND PUSH32 0x8BE0079C531659141344CD1FD0A4F28419497F9722A3DAAFE3B4186F6B6457E0 PUSH1 0x40 MLOAD PUSH1 0x40 MLOAD DUP1 SWAP2 SUB SWAP1 LOG3 POP POP JUMP JUMPDEST PUSH1 0x0 DUP1 REVERT JUMPDEST PUSH1 0x0 DUP2 SWAP1 POP SWAP2 SWAP1 POP JUMP JUMPDEST PUSH3 0x1FC DUP2 PUSH3 0x1E7 JUMP JUMPDEST DUP2 EQ PUSH3 0x208 JUMPI PUSH1 0x0 DUP1 REVERT JUMPDEST POP JUMP JUMPDEST PUSH1 0x0 DUP2 MLOAD SWAP1 POP PUSH3 0x21C DUP2 PUSH3 0x1F1 JUMP JUMPDEST SWAP3 SWAP2 POP POP JUMP JUMPDEST PUSH1 0x0 DUP1 PUSH1 0x0 PUSH1 0x60 DUP5 DUP7 SUB SLT ISZERO PUSH3 0x23E JUMPI PUSH3 0x23D PUSH3 0x1E2 JUMP JUMPDEST JUMPDEST PUSH1 0x0 PUSH3 0x24E DUP7 DUP3 DUP8 ADD PUSH3 0x20B JUMP JUMPDEST SWAP4 POP POP PUSH1 0x20 PUSH3 0x261 DUP7 DUP3 DUP8 ADD PUSH3 0x20B JUMP JUMPDEST SWAP3 POP POP PUSH1 0x40 PUSH3 0x274 DUP7 DUP3 DUP8 ADD PUSH3 0x20B JUMP JUMPDEST SWAP2 POP POP SWAP3 POP SWAP3 POP SWAP3 JUMP JUMPDEST PUSH1 0x0 DUP2 MLOAD SWAP1 POP SWAP2 SWAP1 POP JUMP JUMPDEST PUSH32 0x4E487B7100000000000000000000000000000000000000000000000000000000 PUSH1 0x0 MSTORE PUSH1 0x41 PUSH1 0x4 MSTORE PUSH1 0x24 PUSH1 0x0 REVERT JUMPDEST PUSH32 0x4E487B7100000000000000000000000000000000000000000000000000000000 PUSH1 0x0 MSTORE PUSH1 0x22 PUSH1 0x4 MSTORE PUSH1 0x24 PUSH1 0x0 REVERT JUMPDEST PUSH1 0x0 PUSH1 0x2 DUP3 DIV SWAP1 POP PUSH1 0x1 DUP3 AND DUP1 PUSH3 0x300 JUMPI PUSH1 0x7F DUP3 AND SWAP2 POP JUMPDEST PUSH1 0x20 DUP3 LT DUP2 SUB PUSH3 0x316 JUMPI PUSH3 0x315 PUSH3 0x2B8 JUMP JUMPDEST JUMPDEST POP SWAP2 SWAP1 POP JUMP JUMPDEST PUSH1 0x0 DUP2 SWAP1 POP DUP2 PUSH1 0x0 MSTORE PUSH1 0x20 PUSH1 0x0 KECCAK256 SWAP1 POP SWAP2 SWAP1 POP JUMP JUMPDEST PUSH1 0x0 PUSH1 0x20 PUSH1 0x1F DUP4 ADD DIV SWAP1 POP SWAP2 SWAP1 POP JUMP JUMPDEST PUSH1 0x0 DUP3 DUP3 SHL SWAP1 POP SWAP3 SWAP2 POP POP JUMP JUMPDEST PUSH1 0x0 PUSH1 0x8 DUP4 MUL PUSH3 0x380 PUSH32 0xFFFFFFFFFFFFFFFFFFFFFFFFFFFFFFFFFFFFFFFFFFFFFFFFFFFFFFFFFFFFFFFF DUP3 PUSH3 0x341 JUMP JUMPDEST PUSH3 0x38C DUP7 DUP4 PUSH3 0x341 JUMP JUMPDEST SWAP6 POP DUP1 NOT DUP5 AND SWAP4 POP DUP1 DUP7 AND DUP5 OR SWAP3 POP POP POP SWAP4 SWAP3 POP POP POP JUMP JUMPDEST PUSH1 0x0 DUP2 SWAP1 POP SWAP2 SWAP1 POP JUMP JUMPDEST PUSH1 0x0 PUSH3 0x3CF PUSH3 0x3C9 PUSH3 0x3C3 DUP5 PUSH3 0x1E7 JUMP JUMPDEST PUSH3 0x3A4 JUMP JUMPDEST PUSH3 0x1E7 JUMP JUMPDEST SWAP1 POP SWAP2 SWAP1 POP JUMP JUMPDEST PUSH1 0x0 DUP2 SWAP1 POP SWAP2 SWAP1 POP JUMP JUMPDEST PUSH3 0x3EB DUP4 PUSH3 0x3AE JUMP JUMPDEST PUSH3 0x403 PUSH3 0x3FA DUP3 PUSH3 0x3D6 JUMP JUMPDEST DUP5 DUP5 SLOAD PUSH3 0x34E JUMP JUMPDEST DUP3 SSTORE POP POP POP POP JUMP JUMPDEST PUSH1 0x0 SWAP1 JUMP JUMPDEST PUSH3 0x41A PUSH3 0x40B JUMP JUMPDEST PUSH3 0x427 DUP2 DUP5 DUP5 PUSH3 0x3E0 JUMP JUMPDEST POP POP POP JUMP JUMPDEST JUMPDEST DUP2 DUP2 LT ISZERO PUSH3 0x44F JUMPI PUSH3 0x443 PUSH1 0x0 DUP3 PUSH3 0x410 JUMP JUMPDEST PUSH1 0x1 DUP2 ADD SWAP1 POP PUSH3 0x42D JUMP JUMPDEST POP POP JUMP JUMPDEST PUSH1 0x1F DUP3 GT ISZERO PUSH3 0x49E JUMPI PUSH3 0x468 DUP2 PUSH3 0x31C JUMP JUMPDEST PUSH3 0x473 DUP5 PUSH3 0x331 JUMP JUMPDEST DUP2 ADD PUSH1 0x20 DUP6 LT ISZERO PUSH3 0x483 JUMPI DUP2 SWAP1 POP JUMPDEST PUSH3 0x49B PUSH3 0x492 DUP6 PUSH3 0x331 JUMP JUMPDEST DUP4 ADD DUP3 PUSH3 0x42C JUMP JUMPDEST POP POP JUMPDEST POP POP POP JUMP JUMPDEST PUSH1 0x0 DUP3 DUP3 SHR SWAP1 POP SWAP3 SWAP2 POP POP JUMP JUMPDEST PUSH1 0x0 PUSH3 0x4C3 PUSH1 0x0 NOT DUP5 PUSH1 0x8 MUL PUSH3 0x4A3 JUMP JUMPDEST NOT DUP1 DUP4 AND SWAP2 POP POP SWAP3 SWAP2 POP POP JUMP JUMPDEST PUSH1 0x0 PUSH3 0x4DE DUP4 DUP4 PUSH3 0x4B0 JUMP JUMPDEST SWAP2 POP DUP3 PUSH1 0x2 MUL DUP3 OR SWAP1 POP SWAP3 SWAP2 POP POP JUMP JUMPDEST PUSH3 0x4F9 DUP3 PUSH3 0x27E JUMP JUMPDEST PUSH8 0xFFFFFFFFFFFFFFFF DUP2 GT ISZERO PUSH3 0x515 JUMPI PUSH3 0x514 PUSH3 0x289 JUMP JUMPDEST JUMPDEST PUSH3 0x521 DUP3 SLOAD PUSH3 0x2E7 JUMP JUMPDEST PUSH3 0x52E DUP3 DUP3 DUP6 PUSH3 0x453 JUMP JUMPDEST PUSH1 0x0 PUSH1 0x20 SWAP1 POP PUSH1 0x1F DUP4 GT PUSH1 0x1 DUP2 EQ PUSH3 0x566 JUMPI PUSH1 0x0 DUP5 ISZERO PUSH3 0x551 JUMPI DUP3 DUP8 ADD MLOAD SWAP1 POP JUMPDEST PUSH3 0x55D DUP6 DUP3 PUSH3 0x4D0 JUMP JUMPDEST DUP7 SSTORE POP PUSH3 0x5CD JUMP JUMPDEST PUSH1 0x1F NOT DUP5 AND PUSH3 0x576 DUP7 PUSH3 0x31C JUMP JUMPDEST PUSH1 0x0 JUMPDEST DUP3 DUP2 LT ISZERO PUSH3 0x5A0 JUMPI DUP5 DUP10 ADD MLOAD DUP3 SSTORE PUSH1 0x1 DUP3 ADD SWAP2 POP PUSH1 0x20 DUP6 ADD SWAP5 POP PUSH1 0x20 DUP2 ADD SWAP1 POP PUSH3 0x579 JUMP JUMPDEST DUP7 DUP4 LT ISZERO PUSH3 0x5C0 JUMPI DUP5 DUP10 ADD MLOAD PUSH3 0x5BC PUSH1 0x1F DUP10 AND DUP3 PUSH3 0x4B0 JUMP JUMPDEST DUP4 SSTORE POP JUMPDEST PUSH1 0x1 PUSH1 0x2 DUP9 MUL ADD DUP9 SSTORE POP POP POP JUMPDEST POP POP POP POP POP POP JUMP JUMPDEST PUSH2 0x2F84 DUP1 PUSH3 0x5E5 PUSH1 0x0 CODECOPY PUSH1 0x0 RETURN INVALID PUSH1 0x80 PUSH1 0x40 MSTORE PUSH1 0x4 CALLDATASIZE LT PUSH2 0x166 JUMPI PUSH1 0x0 CALLDATALOAD PUSH1 0xE0 SHR DUP1 PUSH4 0x70A08231 GT PUSH2 0xD1 JUMPI DUP1 PUSH4 0xB3AB66B0 GT PUSH2 0x8A JUMPI DUP1 PUSH4 0xDC33E681 GT PUSH2 0x64 JUMPI DUP1 PUSH4 0xDC33E681 EQ PUSH2 0x51F JUMPI DUP1 PUSH4 0xE985E9C5 EQ PUSH2 0x55C JUMPI DUP1 PUSH4 0xF2FDE38B EQ PUSH2 0x599 JUMPI DUP1 PUSH4 0xF51F96DD EQ PUSH2 0x5C2 JUMPI PUSH2 0x166 JUMP JUMPDEST DUP1 PUSH4 0xB3AB66B0 EQ PUSH2 0x49D JUMPI DUP1 PUSH4 0xB88D4FDE EQ PUSH2 0x4B9 JUMPI DUP1 PUSH4 0xC87B56DD EQ PUSH2 0x4E2 JUMPI PUSH2 0x166 JUMP JUMPDEST DUP1 PUSH4 0x70A08231 EQ PUSH2 0x39F JUMPI DUP1 PUSH4 0x715018A6 EQ PUSH2 0x3DC JUMPI DUP1 PUSH4 0x8BC35C2F EQ PUSH2 0x3F3 JUMPI DUP1 PUSH4 0x8DA5CB5B EQ PUSH2 0x41E JUMPI DUP1 PUSH4 0x95D89B41 EQ PUSH2 0x449 JUMPI DUP1 PUSH4 0xA22CB465 EQ PUSH2 0x474 JUMPI PUSH2 0x166 JUMP JUMPDEST DUP1 PUSH4 0x23B872DD GT PUSH2 0x123 JUMPI DUP1 PUSH4 0x23B872DD EQ PUSH2 0x28F JUMPI DUP1 PUSH4 0x2913DAA0 EQ PUSH2 0x2B8 JUMPI DUP1 PUSH4 0x42842E0E EQ PUSH2 0x2E3 JUMPI DUP1 PUSH4 0x45C0F533 EQ PUSH2 0x30C JUMPI DUP1 PUSH4 0x6352211E EQ PUSH2 0x337 JUMPI DUP1 PUSH4 0x6BB7B1D9 EQ PUSH2 0x374 JUMPI PUSH2 0x166 JUMP JUMPDEST DUP1 PUSH4 0x1FFC9A7 EQ PUSH2 0x16B JUMPI DUP1 PUSH4 0x55AD42E EQ PUSH2 0x1A8 JUMPI DUP1 PUSH4 0x6FDDE03 EQ PUSH2 0x1D3 JUMPI DUP1 PUSH4 0x81812FC EQ PUSH2 0x1FE JUMPI DUP1 PUSH4 0x95EA7B3 EQ PUSH2 0x23B JUMPI DUP1 PUSH4 0x18160DDD EQ PUSH2 0x264 JUMPI JUMPDEST PUSH1 0x0 DUP1 REVERT JUMPDEST CALLVALUE DUP1 ISZERO PUSH2 0x177 JUMPI PUSH1 0x0 DUP1 REVERT JUMPDEST POP PUSH2 0x192 PUSH1 0x4 DUP1 CALLDATASIZE SUB DUP2 ADD SWAP1 PUSH2 0x18D SWAP2 SWAP1 PUSH2 0x1F89 JUMP JUMPDEST PUSH2 0x5ED JUMP JUMPDEST PUSH1 0x40 MLOAD PUSH2 0x19F SWAP2 SWAP1 PUSH2 0x1FD1 JUMP JUMPDEST PUSH1 0x40 MLOAD DUP1 SWAP2 SUB SWAP1 RETURN JUMPDEST CALLVALUE DUP1 ISZERO PUSH2 0x1B4 JUMPI PUSH1 0x0 DUP1 REVERT JUMPDEST POP PUSH2 0x1BD PUSH2 0x6CF JUMP JUMPDEST PUSH1 0x40 MLOAD PUSH2 0x1CA SWAP2 SWAP1 PUSH2 0x2063 JUMP JUMPDEST PUSH1 0x40 MLOAD DUP1 SWAP2 SUB SWAP1 RETURN JUMPDEST CALLVALUE DUP1 ISZERO PUSH2 0x1DF JUMPI PUSH1 0x0 DUP1 REVERT JUMPDEST POP PUSH2 0x1E8 PUSH2 0x6F8 JUMP JUMPDEST PUSH1 0x40 MLOAD PUSH2 0x1F5 SWAP2 SWAP1 PUSH2 0x210E JUMP JUMPDEST PUSH1 0x40 MLOAD DUP1 SWAP2 SUB SWAP1 RETURN JUMPDEST CALLVALUE DUP1 ISZERO PUSH2 0x20A JUMPI PUSH1 0x0 DUP1 REVERT JUMPDEST POP PUSH2 0x225 PUSH1 0x4 DUP1 CALLDATASIZE SUB DUP2 ADD SWAP1 PUSH2 0x220 SWAP2 SWAP1 PUSH2 0x2166 JUMP JUMPDEST PUSH2 0x78A JUMP JUMPDEST PUSH1 0x40 MLOAD PUSH2 0x232 SWAP2 SWAP1 PUSH2 0x21D4 JUMP JUMPDEST PUSH1 0x40 MLOAD DUP1 SWAP2 SUB SWAP1 RETURN JUMPDEST CALLVALUE DUP1 ISZERO PUSH2 0x247 JUMPI PUSH1 0x0 DUP1 REVERT JUMPDEST POP PUSH2 0x262 PUSH1 0x4 DUP1 CALLDATASIZE SUB DUP2 ADD SWAP1 PUSH2 0x25D SWAP2 SWAP1 PUSH2 0x221B JUMP JUMPDEST PUSH2 0x7D0 JUMP JUMPDEST STOP JUMPDEST CALLVALUE DUP1 ISZERO PUSH2 0x270 JUMPI PUSH1 0x0 DUP1 REVERT JUMPDEST POP PUSH2 0x279 PUSH2 0x8E7 JUMP JUMPDEST PUSH1 0x40 MLOAD PUSH2 0x286 SWAP2 SWAP1 PUSH2 0x226A JUMP JUMPDEST PUSH1 0x40 MLOAD DUP1 SWAP2 SUB SWAP1 RETURN JUMPDEST CALLVALUE DUP1 ISZERO PUSH2 0x29B JUMPI PUSH1 0x0 DUP1 REVERT JUMPDEST POP PUSH2 0x2B6 PUSH1 0x4 DUP1 CALLDATASIZE SUB DUP2 ADD SWAP1 PUSH2 0x2B1 SWAP2 SWAP1 PUSH2 0x2285 JUMP JUMPDEST PUSH2 0x8F8 JUMP JUMPDEST STOP JUMPDEST CALLVALUE DUP1 ISZERO PUSH2 0x2C4 JUMPI PUSH1 0x0 DUP1 REVERT JUMPDEST POP PUSH2 0x2CD PUSH2 0x958 JUMP JUMPDEST PUSH1 0x40 MLOAD PUSH2 0x2DA SWAP2 SWAP1 PUSH2 0x226A JUMP JUMPDEST PUSH1 0x40 MLOAD DUP1 SWAP2 SUB SWAP1 RETURN JUMPDEST CALLVALUE DUP1 ISZERO PUSH2 0x2EF JUMPI PUSH1 0x0 DUP1 REVERT JUMPDEST POP PUSH2 0x30A PUSH1 0x4 DUP1 CALLDATASIZE SUB DUP2 ADD SWAP1 PUSH2 0x305 SWAP2 SWAP1 PUSH2 0x2285 JUMP JUMPDEST PUSH2 0x95E JUMP JUMPDEST STOP JUMPDEST CALLVALUE DUP1 ISZERO PUSH2 0x318 JUMPI PUSH1 0x0 DUP1 REVERT JUMPDEST POP PUSH2 0x321 PUSH2 0x97E JUMP JUMPDEST PUSH1 0x40 MLOAD PUSH2 0x32E SWAP2 SWAP1 PUSH2 0x226A JUMP JUMPDEST PUSH1 0x40 MLOAD DUP1 SWAP2 SUB SWAP1 RETURN JUMPDEST CALLVALUE DUP1 ISZERO PUSH2 0x343 JUMPI PUSH1 0x0 DUP1 REVERT JUMPDEST POP PUSH2 0x35E PUSH1 0x4 DUP1 CALLDATASIZE SUB DUP2 ADD SWAP1 PUSH2 0x359 SWAP2 SWAP1 PUSH2 0x2166 JUMP JUMPDEST PUSH2 0x984 JUMP JUMPDEST PUSH1 0x40 MLOAD PUSH2 0x36B SWAP2 SWAP1 PUSH2 0x21D4 JUMP JUMPDEST PUSH1 0x40 MLOAD DUP1 SWAP2 SUB SWAP1 RETURN JUMPDEST CALLVALUE DUP1 ISZERO PUSH2 0x380 JUMPI PUSH1 0x0 DUP1 REVERT JUMPDEST POP PUSH2 0x389 PUSH2 0xA0A JUMP JUMPDEST PUSH1 0x40 MLOAD PUSH2 0x396 SWAP2 SWAP1 PUSH2 0x226A JUMP JUMPDEST PUSH1 0x40 MLOAD DUP1 SWAP2 SUB SWAP1 RETURN JUMPDEST CALLVALUE DUP1 ISZERO PUSH2 0x3AB JUMPI PUSH1 0x0 DUP1 REVERT JUMPDEST POP PUSH2 0x3C6 PUSH1 0x4 DUP1 CALLDATASIZE SUB DUP2 ADD SWAP1 PUSH2 0x3C1 SWAP2 SWAP1 PUSH2 0x22D8 JUMP JUMPDEST PUSH2 0xA10 JUMP JUMPDEST PUSH1 0x40 MLOAD PUSH2 0x3D3 SWAP2 SWAP1 PUSH2 0x226A JUMP JUMPDEST PUSH1 0x40 MLOAD DUP1 SWAP2 SUB SWAP1 RETURN JUMPDEST CALLVALUE DUP1 ISZERO PUSH2 0x3E8 JUMPI PUSH1 0x0 DUP1 REVERT JUMPDEST POP PUSH2 0x3F1 PUSH2 0xAC7 JUMP JUMPDEST STOP JUMPDEST CALLVALUE DUP1 ISZERO PUSH2 0x3FF JUMPI PUSH1 0x0 DUP1 REVERT JUMPDEST POP PUSH2 0x408 PUSH2 0xADB JUMP JUMPDEST PUSH1 0x40 MLOAD PUSH2 0x415 SWAP2 SWAP1 PUSH2 0x226A JUMP JUMPDEST PUSH1 0x40 MLOAD DUP1 SWAP2 SUB SWAP1 RETURN JUMPDEST CALLVALUE DUP1 ISZERO PUSH2 0x42A JUMPI PUSH1 0x0 DUP1 REVERT JUMPDEST POP PUSH2 0x433 PUSH2 0xAE1 JUMP JUMPDEST PUSH1 0x40 MLOAD PUSH2 0x440 SWAP2 SWAP1 PUSH2 0x21D4 JUMP JUMPDEST PUSH1 0x40 MLOAD DUP1 SWAP2 SUB SWAP1 RETURN JUMPDEST CALLVALUE DUP1 ISZERO PUSH2 0x455 JUMPI PUSH1 0x0 DUP1 REVERT JUMPDEST POP PUSH2 0x45E PUSH2 0xB0B JUMP JUMPDEST PUSH1 0x40 MLOAD PUSH2 0x46B SWAP2 SWAP1 PUSH2 0x210E JUMP JUMPDEST PUSH1 0x40 MLOAD DUP1 SWAP2 SUB SWAP1 RETURN JUMPDEST CALLVALUE DUP1 ISZERO PUSH2 0x480 JUMPI PUSH1 0x0 DUP1 REVERT JUMPDEST POP PUSH2 0x49B PUSH1 0x4 DUP1 CALLDATASIZE SUB DUP2 ADD SWAP1 PUSH2 0x496 SWAP2 SWAP1 PUSH2 0x2331 JUMP JUMPDEST PUSH2 0xB9D JUMP JUMPDEST STOP JUMPDEST PUSH2 0x4B7 PUSH1 0x4 DUP1 CALLDATASIZE SUB DUP2 ADD SWAP1 PUSH2 0x4B2 SWAP2 SWAP1 PUSH2 0x2166 JUMP JUMPDEST PUSH2 0xBB3 JUMP JUMPDEST STOP JUMPDEST CALLVALUE DUP1 ISZERO PUSH2 0x4C5 JUMPI PUSH1 0x0 DUP1 REVERT JUMPDEST POP PUSH2 0x4E0 PUSH1 0x4 DUP1 CALLDATASIZE SUB DUP2 ADD SWAP1 PUSH2 0x4DB SWAP2 SWAP1 PUSH2 0x24A6 JUMP JUMPDEST PUSH2 0xD27 JUMP JUMPDEST STOP JUMPDEST CALLVALUE DUP1 ISZERO PUSH2 0x4EE JUMPI PUSH1 0x0 DUP1 REVERT JUMPDEST POP PUSH2 0x509 PUSH1 0x4 DUP1 CALLDATASIZE SUB DUP2 ADD SWAP1 PUSH2 0x504 SWAP2 SWAP1 PUSH2 0x2166 JUMP JUMPDEST PUSH2 0xD89 JUMP JUMPDEST PUSH1 0x40 MLOAD PUSH2 0x516 SWAP2 SWAP1 PUSH2 0x210E JUMP JUMPDEST PUSH1 0x40 MLOAD DUP1 SWAP2 SUB SWAP1 RETURN JUMPDEST CALLVALUE DUP1 ISZERO PUSH2 0x52B JUMPI PUSH1 0x0 DUP1 REVERT JUMPDEST POP PUSH2 0x546 PUSH1 0x4 DUP1 CALLDATASIZE SUB DUP2 ADD SWAP1 PUSH2 0x541 SWAP2 SWAP1 PUSH2 0x22D8 JUMP JUMPDEST PUSH2 0xDF1 JUMP JUMPDEST PUSH1 0x40 MLOAD PUSH2 0x553 SWAP2 SWAP1 PUSH2 0x226A JUMP JUMPDEST PUSH1 0x40 MLOAD DUP1 SWAP2 SUB SWAP1 RETURN JUMPDEST CALLVALUE DUP1 ISZERO PUSH2 0x568 JUMPI PUSH1 0x0 DUP1 REVERT JUMPDEST POP PUSH2 0x583 PUSH1 0x4 DUP1 CALLDATASIZE SUB DUP2 ADD SWAP1 PUSH2 0x57E SWAP2 SWAP1 PUSH2 0x2529 JUMP JUMPDEST PUSH2 0xE03 JUMP JUMPDEST PUSH1 0x40 MLOAD PUSH2 0x590 SWAP2 SWAP1 PUSH2 0x1FD1 JUMP JUMPDEST PUSH1 0x40 MLOAD DUP1 SWAP2 SUB SWAP1 RETURN JUMPDEST CALLVALUE DUP1 ISZERO PUSH2 0x5A5 JUMPI PUSH1 0x0 DUP1 REVERT JUMPDEST POP PUSH2 0x5C0 PUSH1 0x4 DUP1 CALLDATASIZE SUB DUP2 ADD SWAP1 PUSH2 0x5BB SWAP2 SWAP1 PUSH2 0x22D8 JUMP JUMPDEST PUSH2 0xE97 JUMP JUMPDEST STOP JUMPDEST CALLVALUE DUP1 ISZERO PUSH2 0x5CE JUMPI PUSH1 0x0 DUP1 REVERT JUMPDEST POP PUSH2 0x5D7 PUSH2 0xF1A JUMP JUMPDEST PUSH1 0x40 MLOAD PUSH2 0x5E4 SWAP2 SWAP1 PUSH2 0x226A JUMP JUMPDEST PUSH1 0x40 MLOAD DUP1 SWAP2 SUB SWAP1 RETURN JUMPDEST PUSH1 0x0 PUSH32 0x80AC58CD00000000000000000000000000000000000000000000000000000000 PUSH28 0xFFFFFFFFFFFFFFFFFFFFFFFFFFFFFFFFFFFFFFFFFFFFFFFFFFFFFFFF NOT AND DUP3 PUSH28 0xFFFFFFFFFFFFFFFFFFFFFFFFFFFFFFFFFFFFFFFFFFFFFFFFFFFFFFFF NOT AND EQ DUP1 PUSH2 0x6B8 JUMPI POP PUSH32 0x5B5E139F00000000000000000000000000000000000000000000000000000000 PUSH28 0xFFFFFFFFFFFFFFFFFFFFFFFFFFFFFFFFFFFFFFFFFFFFFFFFFFFFFFFF NOT AND DUP3 PUSH28 0xFFFFFFFFFFFFFFFFFFFFFFFFFFFFFFFFFFFFFFFFFFFFFFFFFFFFFFFF NOT AND EQ JUMPDEST DUP1 PUSH2 0x6C8 JUMPI POP PUSH2 0x6C7 DUP3 PUSH2 0xF20 JUMP JUMPDEST JUMPDEST SWAP1 POP SWAP2 SWAP1 POP JUMP JUMPDEST PUSH1 0x0 DUP1 PUSH1 0xC SLOAD EQ DUP1 PUSH2 0x6E2 JUMPI POP PUSH1 0xC SLOAD TIMESTAMP LT JUMPDEST ISZERO PUSH2 0x6F0 JUMPI PUSH1 0x0 SWAP1 POP PUSH2 0x6F5 JUMP JUMPDEST PUSH1 0x1 SWAP1 POP JUMPDEST SWAP1 JUMP JUMPDEST PUSH1 0x60 PUSH1 0x0 DUP1 SLOAD PUSH2 0x707 SWAP1 PUSH2 0x2598 JUMP JUMPDEST DUP1 PUSH1 0x1F ADD PUSH1 0x20 DUP1 SWAP2 DIV MUL PUSH1 0x20 ADD PUSH1 0x40 MLOAD SWAP1 DUP2 ADD PUSH1 0x40 MSTORE DUP1 SWAP3 SWAP2 SWAP1 DUP2 DUP2 MSTORE PUSH1 0x20 ADD DUP3 DUP1 SLOAD PUSH2 0x733 SWAP1 PUSH2 0x2598 JUMP JUMPDEST DUP1 ISZERO PUSH2 0x780 JUMPI DUP1 PUSH1 0x1F LT PUSH2 0x755 JUMPI PUSH2 0x100 DUP1 DUP4 SLOAD DIV MUL DUP4 MSTORE SWAP2 PUSH1 0x20 ADD SWAP2 PUSH2 0x780 JUMP JUMPDEST DUP3 ADD SWAP2 SWAP1 PUSH1 0x0 MSTORE PUSH1 0x20 PUSH1 0x0 KECCAK256 SWAP1 JUMPDEST DUP2 SLOAD DUP2 MSTORE SWAP1 PUSH1 0x1 ADD SWAP1 PUSH1 0x20 ADD DUP1 DUP4 GT PUSH2 0x763 JUMPI DUP3 SWAP1 SUB PUSH1 0x1F AND DUP3 ADD SWAP2 JUMPDEST POP POP POP POP POP SWAP1 POP SWAP1 JUMP JUMPDEST PUSH1 0x0 PUSH2 0x795 DUP3 PUSH2 0xF8A JUMP JUMPDEST PUSH1 0x4 PUSH1 0x0 DUP4 DUP2 MSTORE PUSH1 0x20 ADD SWAP1 DUP2 MSTORE PUSH1 0x20 ADD PUSH1 0x0 KECCAK256 PUSH1 0x0 SWAP1 SLOAD SWAP1 PUSH2 0x100 EXP SWAP1 DIV PUSH20 0xFFFFFFFFFFFFFFFFFFFFFFFFFFFFFFFFFFFFFFFF AND SWAP1 POP SWAP2 SWAP1 POP JUMP JUMPDEST PUSH1 0x0 PUSH2 0x7DB DUP3 PUSH2 0x984 JUMP JUMPDEST SWAP1 POP DUP1 PUSH20 0xFFFFFFFFFFFFFFFFFFFFFFFFFFFFFFFFFFFFFFFF AND DUP4 PUSH20 0xFFFFFFFFFFFFFFFFFFFFFFFFFFFFFFFFFFFFFFFF AND SUB PUSH2 0x84B JUMPI PUSH1 0x40 MLOAD PUSH32 0x8C379A000000000000000000000000000000000000000000000000000000000 DUP2 MSTORE PUSH1 0x4 ADD PUSH2 0x842 SWAP1 PUSH2 0x263B JUMP JUMPDEST PUSH1 0x40 MLOAD DUP1 SWAP2 SUB SWAP1 REVERT JUMPDEST DUP1 PUSH20 0xFFFFFFFFFFFFFFFFFFFFFFFFFFFFFFFFFFFFFFFF AND PUSH2 0x86A PUSH2 0xFD5 JUMP JUMPDEST PUSH20 0xFFFFFFFFFFFFFFFFFFFFFFFFFFFFFFFFFFFFFFFF AND EQ DUP1 PUSH2 0x899 JUMPI POP PUSH2 0x898 DUP2 PUSH2 0x893 PUSH2 0xFD5 JUMP JUMPDEST PUSH2 0xE03 JUMP JUMPDEST JUMPDEST PUSH2 0x8D8 JUMPI PUSH1 0x40 MLOAD PUSH32 0x8C379A000000000000000000000000000000000000000000000000000000000 DUP2 MSTORE PUSH1 0x4 ADD PUSH2 0x8CF SWAP1 PUSH2 0x26CD JUMP JUMPDEST PUSH1 0x40 MLOAD DUP1 SWAP2 SUB SWAP1 REVERT JUMPDEST PUSH2 0x8E2 DUP4 DUP4 PUSH2 0xFDD JUMP JUMPDEST POP POP POP JUMP JUMPDEST PUSH1 0x0 PUSH2 0x8F3 PUSH1 0x7 PUSH2 0x1096 JUMP JUMPDEST SWAP1 POP SWAP1 JUMP JUMPDEST PUSH2 0x909 PUSH2 0x903 PUSH2 0xFD5 JUMP JUMPDEST DUP3 PUSH2 0x10A4 JUMP JUMPDEST PUSH2 0x948 JUMPI PUSH1 0x40 MLOAD PUSH32 0x8C379A000000000000000000000000000000000000000000000000000000000 DUP2 MSTORE PUSH1 0x4 ADD PUSH2 0x93F SWAP1 PUSH2 0x275F JUMP JUMPDEST PUSH1 0x40 MLOAD DUP1 SWAP2 SUB SWAP1 REVERT JUMPDEST PUSH2 0x953 DUP4 DUP4 DUP4 PUSH2 0x1139 JUMP JUMPDEST POP POP POP JUMP JUMPDEST PUSH1 0x9 SLOAD DUP2 JUMP JUMPDEST PUSH2 0x979 DUP4 DUP4 DUP4 PUSH1 0x40 MLOAD DUP1 PUSH1 0x20 ADD PUSH1 0x40 MSTORE DUP1 PUSH1 0x0 DUP2 MSTORE POP PUSH2 0xD27 JUMP JUMPDEST POP POP POP JUMP JUMPDEST PUSH1 0x8 SLOAD DUP2 JUMP JUMPDEST PUSH1 0x0 DUP1 PUSH2 0x990 DUP4 PUSH2 0x1432 JUMP JUMPDEST SWAP1 POP PUSH1 0x0 PUSH20 0xFFFFFFFFFFFFFFFFFFFFFFFFFFFFFFFFFFFFFFFF AND DUP2 PUSH20 0xFFFFFFFFFFFFFFFFFFFFFFFFFFFFFFFFFFFFFFFF AND SUB PUSH2 0xA01 JUMPI PUSH1 0x40 MLOAD PUSH32 0x8C379A000000000000000000000000000000000000000000000000000000000 DUP2 MSTORE PUSH1 0x4 ADD PUSH2 0x9F8 SWAP1 PUSH2 0x27CB JUMP JUMPDEST PUSH1 0x40 MLOAD DUP1 SWAP2 SUB SWAP1 REVERT JUMPDEST DUP1 SWAP2 POP POP SWAP2 SWAP1 POP JUMP JUMPDEST PUSH1 0xC SLOAD DUP2 JUMP JUMPDEST PUSH1 0x0 DUP1 PUSH20 0xFFFFFFFFFFFFFFFFFFFFFFFFFFFFFFFFFFFFFFFF AND DUP3 PUSH20 0xFFFFFFFFFFFFFFFFFFFFFFFFFFFFFFFFFFFFFFFF AND SUB PUSH2 0xA80 JUMPI PUSH1 0x40 MLOAD PUSH32 0x8C379A000000000000000000000000000000000000000000000000000000000 DUP2 MSTORE PUSH1 0x4 ADD PUSH2 0xA77 SWAP1 PUSH2 0x285D JUMP JUMPDEST PUSH1 0x40 MLOAD DUP1 SWAP2 SUB SWAP1 REVERT JUMPDEST PUSH1 0x3 PUSH1 0x0 DUP4 PUSH20 0xFFFFFFFFFFFFFFFFFFFFFFFFFFFFFFFFFFFFFFFF AND PUSH20 0xFFFFFFFFFFFFFFFFFFFFFFFFFFFFFFFFFFFFFFFF AND DUP2 MSTORE PUSH1 0x20 ADD SWAP1 DUP2 MSTORE PUSH1 0x20 ADD PUSH1 0x0 KECCAK256 SLOAD SWAP1 POP SWAP2 SWAP1 POP JUMP JUMPDEST PUSH2 0xACF PUSH2 0x146F JUMP JUMPDEST PUSH2 0xAD9 PUSH1 0x0 PUSH2 0x14ED JUMP JUMPDEST JUMP JUMPDEST PUSH1 0xB SLOAD DUP2 JUMP JUMPDEST PUSH1 0x0 PUSH1 0x6 PUSH1 0x0 SWAP1 SLOAD SWAP1 PUSH2 0x100 EXP SWAP1 DIV PUSH20 0xFFFFFFFFFFFFFFFFFFFFFFFFFFFFFFFFFFFFFFFF AND SWAP1 POP SWAP1 JUMP JUMPDEST PUSH1 0x60 PUSH1 0x1 DUP1 SLOAD PUSH2 0xB1A SWAP1 PUSH2 0x2598 JUMP JUMPDEST DUP1 PUSH1 0x1F ADD PUSH1 0x20 DUP1 SWAP2 DIV MUL PUSH1 0x20 ADD PUSH1 0x40 MLOAD SWAP1 DUP2 ADD PUSH1 0x40 MSTORE DUP1 SWAP3 SWAP2 SWAP1 DUP2 DUP2 MSTORE PUSH1 0x20 ADD DUP3 DUP1 SLOAD PUSH2 0xB46 SWAP1 PUSH2 0x2598 JUMP JUMPDEST DUP1 ISZERO PUSH2 0xB93 JUMPI DUP1 PUSH1 0x1F LT PUSH2 0xB68 JUMPI PUSH2 0x100 DUP1 DUP4 SLOAD DIV MUL DUP4 MSTORE SWAP2 PUSH1 0x20 ADD SWAP2 PUSH2 0xB93 JUMP JUMPDEST DUP3 ADD SWAP2 SWAP1 PUSH1 0x0 MSTORE PUSH1 0x20 PUSH1 0x0 KECCAK256 SWAP1 JUMPDEST DUP2 SLOAD DUP2 MSTORE SWAP1 PUSH1 0x1 ADD SWAP1 PUSH1 0x20 ADD DUP1 DUP4 GT PUSH2 0xB76 JUMPI DUP3 SWAP1 SUB PUSH1 0x1F AND DUP3 ADD SWAP2 JUMPDEST POP POP POP POP POP SWAP1 POP SWAP1 JUMP JUMPDEST PUSH2 0xBAF PUSH2 0xBA8 PUSH2 0xFD5 JUMP JUMPDEST DUP4 DUP4 PUSH2 0x15B3 JUMP JUMPDEST POP POP JUMP JUMPDEST PUSH1 0x0 DUP1 CALLER SWAP1 POP DUP1 EXTCODESIZE SWAP2 POP PUSH1 0x0 DUP3 GT ISZERO PUSH2 0xBF8 JUMPI PUSH1 0x40 MLOAD PUSH32 0xC167918400000000000000000000000000000000000000000000000000000000 DUP2 MSTORE PUSH1 0x4 ADD PUSH1 0x40 MLOAD DUP1 SWAP2 SUB SWAP1 REVERT JUMPDEST PUSH1 0x1 DUP1 PUSH1 0x1 DUP2 GT ISZERO PUSH2 0xC0D JUMPI PUSH2 0xC0C PUSH2 0x1FEC JUMP JUMPDEST JUMPDEST PUSH2 0xC15 PUSH2 0x6CF JUMP JUMPDEST PUSH1 0x1 DUP2 GT ISZERO PUSH2 0xC27 JUMPI PUSH2 0xC26 PUSH2 0x1FEC JUMP JUMPDEST JUMPDEST EQ PUSH2 0xC5E JUMPI PUSH1 0x40 MLOAD PUSH32 0x38DF794B00000000000000000000000000000000000000000000000000000000 DUP2 MSTORE PUSH1 0x4 ADD PUSH1 0x40 MLOAD DUP1 SWAP2 SUB SWAP1 REVERT JUMPDEST PUSH1 0xB SLOAD DUP5 PUSH2 0xC6B CALLER PUSH2 0xDF1 JUMP JUMPDEST PUSH2 0xC75 SWAP2 SWAP1 PUSH2 0x28AC JUMP JUMPDEST GT ISZERO PUSH2 0xCAD JUMPI PUSH1 0x40 MLOAD PUSH32 0xD798ADEC00000000000000000000000000000000000000000000000000000000 DUP2 MSTORE PUSH1 0x4 ADD PUSH1 0x40 MLOAD DUP1 SWAP2 SUB SWAP1 REVERT JUMPDEST PUSH1 0x8 SLOAD DUP5 PUSH2 0xCB9 PUSH2 0x8E7 JUMP JUMPDEST PUSH2 0xCC3 SWAP2 SWAP1 PUSH2 0x28AC JUMP JUMPDEST GT ISZERO PUSH2 0xCFB JUMPI PUSH1 0x40 MLOAD PUSH32 0x3DBB8D4600000000000000000000000000000000000000000000000000000000 DUP2 MSTORE PUSH1 0x4 ADD PUSH1 0x40 MLOAD DUP1 SWAP2 SUB SWAP1 REVERT JUMPDEST PUSH1 0x0 DUP5 PUSH1 0xA SLOAD PUSH2 0xD0B SWAP2 SWAP1 PUSH2 0x28E0 JUMP JUMPDEST SWAP1 POP PUSH2 0xD17 CALLER DUP7 PUSH2 0x171F JUMP JUMPDEST PUSH2 0xD20 DUP2 PUSH2 0x175F JUMP JUMPDEST POP POP POP POP POP JUMP JUMPDEST PUSH2 0xD38 PUSH2 0xD32 PUSH2 0xFD5 JUMP JUMPDEST DUP4 PUSH2 0x10A4 JUMP JUMPDEST PUSH2 0xD77 JUMPI PUSH1 0x40 MLOAD PUSH32 0x8C379A000000000000000000000000000000000000000000000000000000000 DUP2 MSTORE PUSH1 0x4 ADD PUSH2 0xD6E SWAP1 PUSH2 0x275F JUMP JUMPDEST PUSH1 0x40 MLOAD DUP1 SWAP2 SUB SWAP1 REVERT JUMPDEST PUSH2 0xD83 DUP5 DUP5 DUP5 DUP5 PUSH2 0x185F JUMP JUMPDEST POP POP POP POP JUMP JUMPDEST PUSH1 0x60 PUSH2 0xD94 DUP3 PUSH2 0xF8A JUMP JUMPDEST PUSH1 0x0 PUSH2 0xD9E PUSH2 0x18BB JUMP JUMPDEST SWAP1 POP PUSH1 0x0 DUP2 MLOAD GT PUSH2 0xDBE JUMPI PUSH1 0x40 MLOAD DUP1 PUSH1 0x20 ADD PUSH1 0x40 MSTORE DUP1 PUSH1 0x0 DUP2 MSTORE POP PUSH2 0xDE9 JUMP JUMPDEST DUP1 PUSH2 0xDC8 DUP5 PUSH2 0x18D2 JUMP JUMPDEST PUSH1 0x40 MLOAD PUSH1 0x20 ADD PUSH2 0xDD9 SWAP3 SWAP2 SWAP1 PUSH2 0x295E JUMP JUMPDEST PUSH1 0x40 MLOAD PUSH1 0x20 DUP2 DUP4 SUB SUB DUP2 MSTORE SWAP1 PUSH1 0x40 MSTORE JUMPDEST SWAP2 POP POP SWAP2 SWAP1 POP JUMP JUMPDEST PUSH1 0x0 PUSH2 0xDFC DUP3 PUSH2 0xA10 JUMP JUMPDEST SWAP1 POP SWAP2 SWAP1 POP JUMP JUMPDEST PUSH1 0x0 PUSH1 0x5 PUSH1 0x0 DUP5 PUSH20 0xFFFFFFFFFFFFFFFFFFFFFFFFFFFFFFFFFFFFFFFF AND PUSH20 0xFFFFFFFFFFFFFFFFFFFFFFFFFFFFFFFFFFFFFFFF AND DUP2 MSTORE PUSH1 0x20 ADD SWAP1 DUP2 MSTORE PUSH1 0x20 ADD PUSH1 0x0 KECCAK256 PUSH1 0x0 DUP4 PUSH20 0xFFFFFFFFFFFFFFFFFFFFFFFFFFFFFFFFFFFFFFFF AND PUSH20 0xFFFFFFFFFFFFFFFFFFFFFFFFFFFFFFFFFFFFFFFF AND DUP2 MSTORE PUSH1 0x20 ADD SWAP1 DUP2 MSTORE PUSH1 0x20 ADD PUSH1 0x0 KECCAK256 PUSH1 0x0 SWAP1 SLOAD SWAP1 PUSH2 0x100 EXP SWAP1 DIV PUSH1 0xFF AND SWAP1 POP SWAP3 SWAP2 POP POP JUMP JUMPDEST PUSH2 0xE9F PUSH2 0x146F JUMP JUMPDEST PUSH1 0x0 PUSH20 0xFFFFFFFFFFFFFFFFFFFFFFFFFFFFFFFFFFFFFFFF AND DUP2 PUSH20 0xFFFFFFFFFFFFFFFFFFFFFFFFFFFFFFFFFFFFFFFF AND SUB PUSH2 0xF0E JUMPI PUSH1 0x40 MLOAD PUSH32 0x8C379A000000000000000000000000000000000000000000000000000000000 DUP2 MSTORE PUSH1 0x4 ADD PUSH2 0xF05 SWAP1 PUSH2 0x29F4 JUMP JUMPDEST PUSH1 0x40 MLOAD DUP1 SWAP2 SUB SWAP1 REVERT JUMPDEST PUSH2 0xF17 DUP2 PUSH2 0x14ED JUMP JUMPDEST POP JUMP JUMPDEST PUSH1 0xA SLOAD DUP2 JUMP JUMPDEST PUSH1 0x0 PUSH32 0x1FFC9A700000000000000000000000000000000000000000000000000000000 PUSH28 0xFFFFFFFFFFFFFFFFFFFFFFFFFFFFFFFFFFFFFFFFFFFFFFFFFFFFFFFF NOT AND DUP3 PUSH28 0xFFFFFFFFFFFFFFFFFFFFFFFFFFFFFFFFFFFFFFFFFFFFFFFFFFFFFFFF NOT AND EQ SWAP1 POP SWAP2 SWAP1 POP JUMP JUMPDEST PUSH2 0xF93 DUP2 PUSH2 0x19A0 JUMP JUMPDEST PUSH2 0xFD2 JUMPI PUSH1 0x40 MLOAD PUSH32 0x8C379A000000000000000000000000000000000000000000000000000000000 DUP2 MSTORE PUSH1 0x4 ADD PUSH2 0xFC9 SWAP1 PUSH2 0x27CB JUMP JUMPDEST PUSH1 0x40 MLOAD DUP1 SWAP2 SUB SWAP1 REVERT JUMPDEST POP JUMP JUMPDEST PUSH1 0x0 CALLER SWAP1 POP SWAP1 JUMP JUMPDEST DUP2 PUSH1 0x4 PUSH1 0x0 DUP4 DUP2 MSTORE PUSH1 0x20 ADD SWAP1 DUP2 MSTORE PUSH1 0x20 ADD PUSH1 0x0 KECCAK256 PUSH1 0x0 PUSH2 0x100 EXP DUP2 SLOAD DUP2 PUSH20 0xFFFFFFFFFFFFFFFFFFFFFFFFFFFFFFFFFFFFFFFF MUL NOT AND SWAP1 DUP4 PUSH20 0xFFFFFFFFFFFFFFFFFFFFFFFFFFFFFFFFFFFFFFFF AND MUL OR SWAP1 SSTORE POP DUP1 DUP3 PUSH20 0xFFFFFFFFFFFFFFFFFFFFFFFFFFFFFFFFFFFFFFFF AND PUSH2 0x1050 DUP4 PUSH2 0x984 JUMP JUMPDEST PUSH20 0xFFFFFFFFFFFFFFFFFFFFFFFFFFFFFFFFFFFFFFFF AND PUSH32 0x8C5BE1E5EBEC7D5BD14F71427D1E84F3DD0314C0F7B2291E5B200AC8C7C3B925 PUSH1 0x40 MLOAD PUSH1 0x40 MLOAD DUP1 SWAP2 SUB SWAP1 LOG4 POP POP JUMP JUMPDEST PUSH1 0x0 DUP2 PUSH1 0x0 ADD SLOAD SWAP1 POP SWAP2 SWAP1 POP JUMP JUMPDEST PUSH1 0x0 DUP1 PUSH2 0x10B0 DUP4 PUSH2 0x984 JUMP JUMPDEST SWAP1 POP DUP1 PUSH20 0xFFFFFFFFFFFFFFFFFFFFFFFFFFFFFFFFFFFFFFFF AND DUP5 PUSH20 0xFFFFFFFFFFFFFFFFFFFFFFFFFFFFFFFFFFFFFFFF AND EQ DUP1 PUSH2 0x10F2 JUMPI POP PUSH2 0x10F1 DUP2 DUP6 PUSH2 0xE03 JUMP JUMPDEST JUMPDEST DUP1 PUSH2 0x1130 JUMPI POP DUP4 PUSH20 0xFFFFFFFFFFFFFFFFFFFFFFFFFFFFFFFFFFFFFFFF AND PUSH2 0x1118 DUP5 PUSH2 0x78A JUMP JUMPDEST PUSH20 0xFFFFFFFFFFFFFFFFFFFFFFFFFFFFFFFFFFFFFFFF AND EQ JUMPDEST SWAP2 POP POP SWAP3 SWAP2 POP POP JUMP JUMPDEST DUP3 PUSH20 0xFFFFFFFFFFFFFFFFFFFFFFFFFFFFFFFFFFFFFFFF AND PUSH2 0x1159 DUP3 PUSH2 0x984 JUMP JUMPDEST PUSH20 0xFFFFFFFFFFFFFFFFFFFFFFFFFFFFFFFFFFFFFFFF AND EQ PUSH2 0x11AF JUMPI PUSH1 0x40 MLOAD PUSH32 0x8C379A000000000000000000000000000000000000000000000000000000000 DUP2 MSTORE PUSH1 0x4 ADD PUSH2 0x11A6 SWAP1 PUSH2 0x2A86 JUMP JUMPDEST PUSH1 0x40 MLOAD DUP1 SWAP2 SUB SWAP1 REVERT JUMPDEST PUSH1 0x0 PUSH20 0xFFFFFFFFFFFFFFFFFFFFFFFFFFFFFFFFFFFFFFFF AND DUP3 PUSH20 0xFFFFFFFFFFFFFFFFFFFFFFFFFFFFFFFFFFFFFFFF AND SUB PUSH2 0x121E JUMPI PUSH1 0x40 MLOAD PUSH32 0x8C379A000000000000000000000000000000000000000000000000000000000 DUP2 MSTORE PUSH1 0x4 ADD PUSH2 0x1215 SWAP1 PUSH2 0x2B18 JUMP JUMPDEST PUSH1 0x40 MLOAD DUP1 SWAP2 SUB SWAP1 REVERT JUMPDEST PUSH2 0x122B DUP4 DUP4 DUP4 PUSH1 0x1 PUSH2 0x19E1 JUMP JUMPDEST DUP3 PUSH20 0xFFFFFFFFFFFFFFFFFFFFFFFFFFFFFFFFFFFFFFFF AND PUSH2 0x124B DUP3 PUSH2 0x984 JUMP JUMPDEST PUSH20 0xFFFFFFFFFFFFFFFFFFFFFFFFFFFFFFFFFFFFFFFF AND EQ PUSH2 0x12A1 JUMPI PUSH1 0x40 MLOAD PUSH32 0x8C379A000000000000000000000000000000000000000000000000000000000 DUP2 MSTORE PUSH1 0x4 ADD PUSH2 0x1298 SWAP1 PUSH2 0x2A86 JUMP JUMPDEST PUSH1 0x40 MLOAD DUP1 SWAP2 SUB SWAP1 REVERT JUMPDEST PUSH1 0x4 PUSH1 0x0 DUP3 DUP2 MSTORE PUSH1 0x20 ADD SWAP1 DUP2 MSTORE PUSH1 0x20 ADD PUSH1 0x0 KECCAK256 PUSH1 0x0 PUSH2 0x100 EXP DUP2 SLOAD SWAP1 PUSH20 0xFFFFFFFFFFFFFFFFFFFFFFFFFFFFFFFFFFFFFFFF MUL NOT AND SWAP1 SSTORE PUSH1 0x1 PUSH1 0x3 PUSH1 0x0 DUP6 PUSH20 0xFFFFFFFFFFFFFFFFFFFFFFFFFFFFFFFFFFFFFFFF AND PUSH20 0xFFFFFFFFFFFFFFFFFFFFFFFFFFFFFFFFFFFFFFFF AND DUP2 MSTORE PUSH1 0x20 ADD SWAP1 DUP2 MSTORE PUSH1 0x20 ADD PUSH1 0x0 KECCAK256 PUSH1 0x0 DUP3 DUP3 SLOAD SUB SWAP3 POP POP DUP2 SWAP1 SSTORE POP PUSH1 0x1 PUSH1 0x3 PUSH1 0x0 DUP5 PUSH20 0xFFFFFFFFFFFFFFFFFFFFFFFFFFFFFFFFFFFFFFFF AND PUSH20 0xFFFFFFFFFFFFFFFFFFFFFFFFFFFFFFFFFFFFFFFF AND DUP2 MSTORE PUSH1 0x20 ADD SWAP1 DUP2 MSTORE PUSH1 0x20 ADD PUSH1 0x0 KECCAK256 PUSH1 0x0 DUP3 DUP3 SLOAD ADD SWAP3 POP POP DUP2 SWAP1 SSTORE POP DUP2 PUSH1 0x2 PUSH1 0x0 DUP4 DUP2 MSTORE PUSH1 0x20 ADD SWAP1 DUP2 MSTORE PUSH1 0x20 ADD PUSH1 0x0 KECCAK256 PUSH1 0x0 PUSH2 0x100 EXP DUP2 SLOAD DUP2 PUSH20 0xFFFFFFFFFFFFFFFFFFFFFFFFFFFFFFFFFFFFFFFF MUL NOT AND SWAP1 DUP4 PUSH20 0xFFFFFFFFFFFFFFFFFFFFFFFFFFFFFFFFFFFFFFFF AND MUL OR SWAP1 SSTORE POP DUP1 DUP3 PUSH20 0xFFFFFFFFFFFFFFFFFFFFFFFFFFFFFFFFFFFFFFFF AND DUP5 PUSH20 0xFFFFFFFFFFFFFFFFFFFFFFFFFFFFFFFFFFFFFFFF AND PUSH32 0xDDF252AD1BE2C89B69C2B068FC378DAA952BA7F163C4A11628F55A4DF523B3EF PUSH1 0x40 MLOAD PUSH1 0x40 MLOAD DUP1 SWAP2 SUB SWAP1 LOG4 PUSH2 0x142D DUP4 DUP4 DUP4 PUSH1 0x1 PUSH2 0x19E7 JUMP JUMPDEST POP POP POP JUMP JUMPDEST PUSH1 0x0 PUSH1 0x2 PUSH1 0x0 DUP4 DUP2 MSTORE PUSH1 0x20 ADD SWAP1 DUP2 MSTORE PUSH1 0x20 ADD PUSH1 0x0 KECCAK256 PUSH1 0x0 SWAP1 SLOAD SWAP1 PUSH2 0x100 EXP SWAP1 DIV PUSH20 0xFFFFFFFFFFFFFFFFFFFFFFFFFFFFFFFFFFFFFFFF AND SWAP1 POP SWAP2 SWAP1 POP JUMP JUMPDEST PUSH2 0x1477 PUSH2 0xFD5 JUMP JUMPDEST PUSH20 0xFFFFFFFFFFFFFFFFFFFFFFFFFFFFFFFFFFFFFFFF AND PUSH2 0x1495 PUSH2 0xAE1 JUMP JUMPDEST PUSH20 0xFFFFFFFFFFFFFFFFFFFFFFFFFFFFFFFFFFFFFFFF AND EQ PUSH2 0x14EB JUMPI PUSH1 0x40 MLOAD PUSH32 0x8C379A000000000000000000000000000000000000000000000000000000000 DUP2 MSTORE PUSH1 0x4 ADD PUSH2 0x14E2 SWAP1 PUSH2 0x2B84 JUMP JUMPDEST PUSH1 0x40 MLOAD DUP1 SWAP2 SUB SWAP1 REVERT JUMPDEST JUMP JUMPDEST PUSH1 0x0 PUSH1 0x6 PUSH1 0x0 SWAP1 SLOAD SWAP1 PUSH2 0x100 EXP SWAP1 DIV PUSH20 0xFFFFFFFFFFFFFFFFFFFFFFFFFFFFFFFFFFFFFFFF AND SWAP1 POP DUP2 PUSH1 0x6 PUSH1 0x0 PUSH2 0x100 EXP DUP2 SLOAD DUP2 PUSH20 0xFFFFFFFFFFFFFFFFFFFFFFFFFFFFFFFFFFFFFFFF MUL NOT AND SWAP1 DUP4 PUSH20 0xFFFFFFFFFFFFFFFFFFFFFFFFFFFFFFFFFFFFFFFF AND MUL OR SWAP1 SSTORE POP DUP2 PUSH20 0xFFFFFFFFFFFFFFFFFFFFFFFFFFFFFFFFFFFFFFFF AND DUP2 PUSH20 0xFFFFFFFFFFFFFFFFFFFFFFFFFFFFFFFFFFFFFFFF AND PUSH32 0x8BE0079C531659141344CD1FD0A4F28419497F9722A3DAAFE3B4186F6B6457E0 PUSH1 0x40 MLOAD PUSH1 0x40 MLOAD DUP1 SWAP2 SUB SWAP1 LOG3 POP POP JUMP JUMPDEST DUP2 PUSH20 0xFFFFFFFFFFFFFFFFFFFFFFFFFFFFFFFFFFFFFFFF AND DUP4 PUSH20 0xFFFFFFFFFFFFFFFFFFFFFFFFFFFFFFFFFFFFFFFF AND SUB PUSH2 0x1621 JUMPI PUSH1 0x40 MLOAD PUSH32 0x8C379A000000000000000000000000000000000000000000000000000000000 DUP2 MSTORE PUSH1 0x4 ADD PUSH2 0x1618 SWAP1 PUSH2 0x2BF0 JUMP JUMPDEST PUSH1 0x40 MLOAD DUP1 SWAP2 SUB SWAP1 REVERT JUMPDEST DUP1 PUSH1 0x5 PUSH1 0x0 DUP6 PUSH20 0xFFFFFFFFFFFFFFFFFFFFFFFFFFFFFFFFFFFFFFFF AND PUSH20 0xFFFFFFFFFFFFFFFFFFFFFFFFFFFFFFFFFFFFFFFF AND DUP2 MSTORE PUSH1 0x20 ADD SWAP1 DUP2 MSTORE PUSH1 0x20 ADD PUSH1 0x0 KECCAK256 PUSH1 0x0 DUP5 PUSH20 0xFFFFFFFFFFFFFFFFFFFFFFFFFFFFFFFFFFFFFFFF AND PUSH20 0xFFFFFFFFFFFFFFFFFFFFFFFFFFFFFFFFFFFFFFFF AND DUP2 MSTORE PUSH1 0x20 ADD SWAP1 DUP2 MSTORE PUSH1 0x20 ADD PUSH1 0x0 KECCAK256 PUSH1 0x0 PUSH2 0x100 EXP DUP2 SLOAD DUP2 PUSH1 0xFF MUL NOT AND SWAP1 DUP4 ISZERO ISZERO MUL OR SWAP1 SSTORE POP DUP2 PUSH20 0xFFFFFFFFFFFFFFFFFFFFFFFFFFFFFFFFFFFFFFFF AND DUP4 PUSH20 0xFFFFFFFFFFFFFFFFFFFFFFFFFFFFFFFFFFFFFFFF AND PUSH32 0x17307EAB39AB6107E8899845AD3D59BD9653F200F220920489CA2B5937696C31 DUP4 PUSH1 0x40 MLOAD PUSH2 0x1712 SWAP2 SWAP1 PUSH2 0x1FD1 JUMP JUMPDEST PUSH1 0x40 MLOAD DUP1 SWAP2 SUB SWAP1 LOG3 POP POP POP JUMP JUMPDEST PUSH1 0x0 JUMPDEST DUP2 DUP2 LT ISZERO PUSH2 0x175A JUMPI PUSH2 0x173D DUP4 PUSH2 0x1738 PUSH1 0x7 PUSH2 0x1096 JUMP JUMPDEST PUSH2 0x19ED JUMP JUMPDEST PUSH2 0x1747 PUSH1 0x7 PUSH2 0x1C0A JUMP JUMPDEST DUP1 DUP1 PUSH2 0x1752 SWAP1 PUSH2 0x2C10 JUMP JUMPDEST SWAP2 POP POP PUSH2 0x1722 JUMP JUMPDEST POP POP POP JUMP JUMPDEST DUP1 CALLVALUE LT ISZERO PUSH2 0x17A4 JUMPI CALLVALUE PUSH1 0x40 MLOAD PUSH32 0x6E0C3FF00000000000000000000000000000000000000000000000000000000 DUP2 MSTORE PUSH1 0x4 ADD PUSH2 0x179B SWAP2 SWAP1 PUSH2 0x226A JUMP JUMPDEST PUSH1 0x40 MLOAD DUP1 SWAP2 SUB SWAP1 REVERT JUMPDEST DUP1 CALLVALUE GT ISZERO PUSH2 0x185C JUMPI PUSH1 0x0 CALLER PUSH20 0xFFFFFFFFFFFFFFFFFFFFFFFFFFFFFFFFFFFFFFFF AND DUP3 CALLVALUE PUSH2 0x17D1 SWAP2 SWAP1 PUSH2 0x2C58 JUMP JUMPDEST PUSH1 0x40 MLOAD PUSH2 0x17DD SWAP1 PUSH2 0x2CBD JUMP JUMPDEST PUSH1 0x0 PUSH1 0x40 MLOAD DUP1 DUP4 SUB DUP2 DUP6 DUP8 GAS CALL SWAP3 POP POP POP RETURNDATASIZE DUP1 PUSH1 0x0 DUP2 EQ PUSH2 0x181A JUMPI PUSH1 0x40 MLOAD SWAP2 POP PUSH1 0x1F NOT PUSH1 0x3F RETURNDATASIZE ADD AND DUP3 ADD PUSH1 0x40 MSTORE RETURNDATASIZE DUP3 MSTORE RETURNDATASIZE PUSH1 0x0 PUSH1 0x20 DUP5 ADD RETURNDATACOPY PUSH2 0x181F JUMP JUMPDEST PUSH1 0x60 SWAP2 POP JUMPDEST POP POP SWAP1 POP DUP1 PUSH2 0x185A JUMPI PUSH1 0x40 MLOAD PUSH32 0xEAA7983400000000000000000000000000000000000000000000000000000000 DUP2 MSTORE PUSH1 0x4 ADD PUSH1 0x40 MLOAD DUP1 SWAP2 SUB SWAP1 REVERT JUMPDEST POP JUMPDEST POP JUMP JUMPDEST PUSH2 0x186A DUP5 DUP5 DUP5 PUSH2 0x1139 JUMP JUMPDEST PUSH2 0x1876 DUP5 DUP5 DUP5 DUP5 PUSH2 0x1C20 JUMP JUMPDEST PUSH2 0x18B5 JUMPI PUSH1 0x40 MLOAD PUSH32 0x8C379A000000000000000000000000000000000000000000000000000000000 DUP2 MSTORE PUSH1 0x4 ADD PUSH2 0x18AC SWAP1 PUSH2 0x2D44 JUMP JUMPDEST PUSH1 0x40 MLOAD DUP1 SWAP2 SUB SWAP1 REVERT JUMPDEST POP POP POP POP JUMP JUMPDEST PUSH1 0x60 PUSH1 0x40 MLOAD DUP1 PUSH1 0x20 ADD PUSH1 0x40 MSTORE DUP1 PUSH1 0x0 DUP2 MSTORE POP SWAP1 POP SWAP1 JUMP JUMPDEST PUSH1 0x60 PUSH1 0x0 PUSH1 0x1 PUSH2 0x18E1 DUP5 PUSH2 0x1DA7 JUMP JUMPDEST ADD SWAP1 POP PUSH1 0x0 DUP2 PUSH8 0xFFFFFFFFFFFFFFFF DUP2 GT ISZERO PUSH2 0x1900 JUMPI PUSH2 0x18FF PUSH2 0x237B JUMP JUMPDEST JUMPDEST PUSH1 0x40 MLOAD SWAP1 DUP1 DUP3 MSTORE DUP1 PUSH1 0x1F ADD PUSH1 0x1F NOT AND PUSH1 0x20 ADD DUP3 ADD PUSH1 0x40 MSTORE DUP1 ISZERO PUSH2 0x1932 JUMPI DUP2 PUSH1 0x20 ADD PUSH1 0x1 DUP3 MUL DUP1 CALLDATASIZE DUP4 CALLDATACOPY DUP1 DUP3 ADD SWAP2 POP POP SWAP1 POP JUMPDEST POP SWAP1 POP PUSH1 0x0 DUP3 PUSH1 0x20 ADD DUP3 ADD SWAP1 POP JUMPDEST PUSH1 0x1 ISZERO PUSH2 0x1995 JUMPI DUP1 DUP1 PUSH1 0x1 SWAP1 SUB SWAP2 POP POP PUSH32 0x3031323334353637383961626364656600000000000000000000000000000000 PUSH1 0xA DUP7 MOD BYTE DUP2 MSTORE8 PUSH1 0xA DUP6 DUP2 PUSH2 0x1989 JUMPI PUSH2 0x1988 PUSH2 0x2D64 JUMP JUMPDEST JUMPDEST DIV SWAP5 POP PUSH1 0x0 DUP6 SUB PUSH2 0x1940 JUMPI JUMPDEST DUP2 SWAP4 POP POP POP POP SWAP2 SWAP1 POP JUMP JUMPDEST PUSH1 0x0 DUP1 PUSH20 0xFFFFFFFFFFFFFFFFFFFFFFFFFFFFFFFFFFFFFFFF AND PUSH2 0x19C2 DUP4 PUSH2 0x1432 JUMP JUMPDEST PUSH20 0xFFFFFFFFFFFFFFFFFFFFFFFFFFFFFFFFFFFFFFFF AND EQ ISZERO SWAP1 POP SWAP2 SWAP1 POP JUMP JUMPDEST POP POP POP POP JUMP JUMPDEST POP POP POP POP JUMP JUMPDEST PUSH1 0x0 PUSH20 0xFFFFFFFFFFFFFFFFFFFFFFFFFFFFFFFFFFFFFFFF AND DUP3 PUSH20 0xFFFFFFFFFFFFFFFFFFFFFFFFFFFFFFFFFFFFFFFF AND SUB PUSH2 0x1A5C JUMPI PUSH1 0x40 MLOAD PUSH32 0x8C379A000000000000000000000000000000000000000000000000000000000 DUP2 MSTORE PUSH1 0x4 ADD PUSH2 0x1A53 SWAP1 PUSH2 0x2DDF JUMP JUMPDEST PUSH1 0x40 MLOAD DUP1 SWAP2 SUB SWAP1 REVERT JUMPDEST PUSH2 0x1A65 DUP2 PUSH2 0x19A0 JUMP JUMPDEST ISZERO PUSH2 0x1AA5 JUMPI PUSH1 0x40 MLOAD PUSH32 0x8C379A000000000000000000000000000000000000000000000000000000000 DUP2 MSTORE PUSH1 0x4 ADD PUSH2 0x1A9C SWAP1 PUSH2 0x2E4B JUMP JUMPDEST PUSH1 0x40 MLOAD DUP1 SWAP2 SUB SWAP1 REVERT JUMPDEST PUSH2 0x1AB3 PUSH1 0x0 DUP4 DUP4 PUSH1 0x1 PUSH2 0x19E1 JUMP JUMPDEST PUSH2 0x1ABC DUP2 PUSH2 0x19A0 JUMP JUMPDEST ISZERO PUSH2 0x1AFC JUMPI PUSH1 0x40 MLOAD PUSH32 0x8C379A000000000000000000000000000000000000000000000000000000000 DUP2 MSTORE PUSH1 0x4 ADD PUSH2 0x1AF3 SWAP1 PUSH2 0x2E4B JUMP JUMPDEST PUSH1 0x40 MLOAD DUP1 SWAP2 SUB SWAP1 REVERT JUMPDEST PUSH1 0x1 PUSH1 0x3 PUSH1 0x0 DUP5 PUSH20 0xFFFFFFFFFFFFFFFFFFFFFFFFFFFFFFFFFFFFFFFF AND PUSH20 0xFFFFFFFFFFFFFFFFFFFFFFFFFFFFFFFFFFFFFFFF AND DUP2 MSTORE PUSH1 0x20 ADD SWAP1 DUP2 MSTORE PUSH1 0x20 ADD PUSH1 0x0 KECCAK256 PUSH1 0x0 DUP3 DUP3 SLOAD ADD SWAP3 POP POP DUP2 SWAP1 SSTORE POP DUP2 PUSH1 0x2 PUSH1 0x0 DUP4 DUP2 MSTORE PUSH1 0x20 ADD SWAP1 DUP2 MSTORE PUSH1 0x20 ADD PUSH1 0x0 KECCAK256 PUSH1 0x0 PUSH2 0x100 EXP DUP2 SLOAD DUP2 PUSH20 0xFFFFFFFFFFFFFFFFFFFFFFFFFFFFFFFFFFFFFFFF MUL NOT AND SWAP1 DUP4 PUSH20 0xFFFFFFFFFFFFFFFFFFFFFFFFFFFFFFFFFFFFFFFF AND MUL OR SWAP1 SSTORE POP DUP1 DUP3 PUSH20 0xFFFFFFFFFFFFFFFFFFFFFFFFFFFFFFFFFFFFFFFF AND PUSH1 0x0 PUSH20 0xFFFFFFFFFFFFFFFFFFFFFFFFFFFFFFFFFFFFFFFF AND PUSH32 0xDDF252AD1BE2C89B69C2B068FC378DAA952BA7F163C4A11628F55A4DF523B3EF PUSH1 0x40 MLOAD PUSH1 0x40 MLOAD DUP1 SWAP2 SUB SWAP1 LOG4 PUSH2 0x1C06 PUSH1 0x0 DUP4 DUP4 PUSH1 0x1 PUSH2 0x19E7 JUMP JUMPDEST POP POP JUMP JUMPDEST PUSH1 0x1 DUP2 PUSH1 0x0 ADD PUSH1 0x0 DUP3 DUP3 SLOAD ADD SWAP3 POP POP DUP2 SWAP1 SSTORE POP POP JUMP JUMPDEST PUSH1 0x0 PUSH2 0x1C41 DUP5 PUSH20 0xFFFFFFFFFFFFFFFFFFFFFFFFFFFFFFFFFFFFFFFF AND PUSH2 0x1EFA JUMP JUMPDEST ISZERO PUSH2 0x1D9A JUMPI DUP4 PUSH20 0xFFFFFFFFFFFFFFFFFFFFFFFFFFFFFFFFFFFFFFFF AND PUSH4 0x150B7A02 PUSH2 0x1C6A PUSH2 0xFD5 JUMP JUMPDEST DUP8 DUP7 DUP7 PUSH1 0x40 MLOAD DUP6 PUSH4 0xFFFFFFFF AND PUSH1 0xE0 SHL DUP2 MSTORE PUSH1 0x4 ADD PUSH2 0x1C8C SWAP5 SWAP4 SWAP3 SWAP2 SWAP1 PUSH2 0x2EC0 JUMP JUMPDEST PUSH1 0x20 PUSH1 0x40 MLOAD DUP1 DUP4 SUB DUP2 PUSH1 0x0 DUP8 GAS CALL SWAP3 POP POP POP DUP1 ISZERO PUSH2 0x1CC8 JUMPI POP PUSH1 0x40 MLOAD RETURNDATASIZE PUSH1 0x1F NOT PUSH1 0x1F DUP3 ADD AND DUP3 ADD DUP1 PUSH1 0x40 MSTORE POP DUP2 ADD SWAP1 PUSH2 0x1CC5 SWAP2 SWAP1 PUSH2 0x2F21 JUMP JUMPDEST PUSH1 0x1 JUMPDEST PUSH2 0x1D4A JUMPI RETURNDATASIZE DUP1 PUSH1 0x0 DUP2 EQ PUSH2 0x1CF8 JUMPI PUSH1 0x40 MLOAD SWAP2 POP PUSH1 0x1F NOT PUSH1 0x3F RETURNDATASIZE ADD AND DUP3 ADD PUSH1 0x40 MSTORE RETURNDATASIZE DUP3 MSTORE RETURNDATASIZE PUSH1 0x0 PUSH1 0x20 DUP5 ADD RETURNDATACOPY PUSH2 0x1CFD JUMP JUMPDEST PUSH1 0x60 SWAP2 POP JUMPDEST POP PUSH1 0x0 DUP2 MLOAD SUB PUSH2 0x1D42 JUMPI PUSH1 0x40 MLOAD PUSH32 0x8C379A000000000000000000000000000000000000000000000000000000000 DUP2 MSTORE PUSH1 0x4 ADD PUSH2 0x1D39 SWAP1 PUSH2 0x2D44 JUMP JUMPDEST PUSH1 0x40 MLOAD DUP1 SWAP2 SUB SWAP1 REVERT JUMPDEST DUP1 MLOAD DUP2 PUSH1 0x20 ADD REVERT JUMPDEST PUSH4 0x150B7A02 PUSH1 0xE0 SHL PUSH28 0xFFFFFFFFFFFFFFFFFFFFFFFFFFFFFFFFFFFFFFFFFFFFFFFFFFFFFFFF NOT AND DUP2 PUSH28 0xFFFFFFFFFFFFFFFFFFFFFFFFFFFFFFFFFFFFFFFFFFFFFFFFFFFFFFFF NOT AND EQ SWAP2 POP POP PUSH2 0x1D9F JUMP JUMPDEST PUSH1 0x1 SWAP1 POP JUMPDEST SWAP5 SWAP4 POP POP POP POP JUMP JUMPDEST PUSH1 0x0 DUP1 PUSH1 0x0 SWAP1 POP PUSH27 0x184F03E93FF9F4DAA797ED6E38ED64BF6A1F010000000000000000 DUP4 LT PUSH2 0x1E05 JUMPI PUSH27 0x184F03E93FF9F4DAA797ED6E38ED64BF6A1F010000000000000000 DUP4 DUP2 PUSH2 0x1DFB JUMPI PUSH2 0x1DFA PUSH2 0x2D64 JUMP JUMPDEST JUMPDEST DIV SWAP3 POP PUSH1 0x40 DUP2 ADD SWAP1 POP JUMPDEST PUSH14 0x4EE2D6D415B85ACEF8100000000 DUP4 LT PUSH2 0x1E42 JUMPI PUSH14 0x4EE2D6D415B85ACEF8100000000 DUP4 DUP2 PUSH2 0x1E38 JUMPI PUSH2 0x1E37 PUSH2 0x2D64 JUMP JUMPDEST JUMPDEST DIV SWAP3 POP PUSH1 0x20 DUP2 ADD SWAP1 POP JUMPDEST PUSH7 0x2386F26FC10000 DUP4 LT PUSH2 0x1E71 JUMPI PUSH7 0x2386F26FC10000 DUP4 DUP2 PUSH2 0x1E67 JUMPI PUSH2 0x1E66 PUSH2 0x2D64 JUMP JUMPDEST JUMPDEST DIV SWAP3 POP PUSH1 0x10 DUP2 ADD SWAP1 POP JUMPDEST PUSH4 0x5F5E100 DUP4 LT PUSH2 0x1E9A JUMPI PUSH4 0x5F5E100 DUP4 DUP2 PUSH2 0x1E90 JUMPI PUSH2 0x1E8F PUSH2 0x2D64 JUMP JUMPDEST JUMPDEST DIV SWAP3 POP PUSH1 0x8 DUP2 ADD SWAP1 POP JUMPDEST PUSH2 0x2710 DUP4 LT PUSH2 0x1EBF JUMPI PUSH2 0x2710 DUP4 DUP2 PUSH2 0x1EB5 JUMPI PUSH2 0x1EB4 PUSH2 0x2D64 JUMP JUMPDEST JUMPDEST DIV SWAP3 POP PUSH1 0x4 DUP2 ADD SWAP1 POP JUMPDEST PUSH1 0x64 DUP4 LT PUSH2 0x1EE2 JUMPI PUSH1 0x64 DUP4 DUP2 PUSH2 0x1ED8 JUMPI PUSH2 0x1ED7 PUSH2 0x2D64 JUMP JUMPDEST JUMPDEST DIV SWAP3 POP PUSH1 0x2 DUP2 ADD SWAP1 POP JUMPDEST PUSH1 0xA DUP4 LT PUSH2 0x1EF1 JUMPI PUSH1 0x1 DUP2 ADD SWAP1 POP JUMPDEST DUP1 SWAP2 POP POP SWAP2 SWAP1 POP JUMP JUMPDEST PUSH1 0x0 DUP1 DUP3 PUSH20 0xFFFFFFFFFFFFFFFFFFFFFFFFFFFFFFFFFFFFFFFF AND EXTCODESIZE GT SWAP1 POP SWAP2 SWAP1 POP JUMP JUMPDEST PUSH1 0x0 PUSH1 0x40 MLOAD SWAP1 POP SWAP1 JUMP JUMPDEST PUSH1 0x0 DUP1 REVERT JUMPDEST PUSH1 0x0 DUP1 REVERT JUMPDEST PUSH1 0x0 PUSH32 0xFFFFFFFF00000000000000000000000000000000000000000000000000000000 DUP3 AND SWAP1 POP SWAP2 SWAP1 POP JUMP JUMPDEST PUSH2 0x1F66 DUP2 PUSH2 0x1F31 JUMP JUMPDEST DUP2 EQ PUSH2 0x1F71 JUMPI PUSH1 0x0 DUP1 REVERT JUMPDEST POP JUMP JUMPDEST PUSH1 0x0 DUP2 CALLDATALOAD SWAP1 POP PUSH2 0x1F83 DUP2 PUSH2 0x1F5D JUMP JUMPDEST SWAP3 SWAP2 POP POP JUMP JUMPDEST PUSH1 0x0 PUSH1 0x20 DUP3 DUP5 SUB SLT ISZERO PUSH2 0x1F9F JUMPI PUSH2 0x1F9E PUSH2 0x1F27 JUMP JUMPDEST JUMPDEST PUSH1 0x0 PUSH2 0x1FAD DUP5 DUP3 DUP6 ADD PUSH2 0x1F74 JUMP JUMPDEST SWAP2 POP POP SWAP3 SWAP2 POP POP JUMP JUMPDEST PUSH1 0x0 DUP2 ISZERO ISZERO SWAP1 POP SWAP2 SWAP1 POP JUMP JUMPDEST PUSH2 0x1FCB DUP2 PUSH2 0x1FB6 JUMP JUMPDEST DUP3 MSTORE POP POP JUMP JUMPDEST PUSH1 0x0 PUSH1 0x20 DUP3 ADD SWAP1 POP PUSH2 0x1FE6 PUSH1 0x0 DUP4 ADD DUP5 PUSH2 0x1FC2 JUMP JUMPDEST SWAP3 SWAP2 POP POP JUMP JUMPDEST PUSH32 0x4E487B7100000000000000000000000000000000000000000000000000000000 PUSH1 0x0 MSTORE PUSH1 0x21 PUSH1 0x4 MSTORE PUSH1 0x24 PUSH1 0x0 REVERT JUMPDEST PUSH1 0x2 DUP2 LT PUSH2 0x202C JUMPI PUSH2 0x202B PUSH2 0x1FEC JUMP JUMPDEST JUMPDEST POP JUMP JUMPDEST PUSH1 0x0 DUP2 SWAP1 POP PUSH2 0x203D DUP3 PUSH2 0x201B JUMP JUMPDEST SWAP2 SWAP1 POP JUMP JUMPDEST PUSH1 0x0 PUSH2 0x204D DUP3 PUSH2 0x202F JUMP JUMPDEST SWAP1 POP SWAP2 SWAP1 POP JUMP JUMPDEST PUSH2 0x205D DUP2 PUSH2 0x2042 JUMP JUMPDEST DUP3 MSTORE POP POP JUMP JUMPDEST PUSH1 0x0 PUSH1 0x20 DUP3 ADD SWAP1 POP PUSH2 0x2078 PUSH1 0x0 DUP4 ADD DUP5 PUSH2 0x2054 JUMP JUMPDEST SWAP3 SWAP2 POP POP JUMP JUMPDEST PUSH1 0x0 DUP2 MLOAD SWAP1 POP SWAP2 SWAP1 POP JUMP JUMPDEST PUSH1 0x0 DUP3 DUP3 MSTORE PUSH1 0x20 DUP3 ADD SWAP1 POP SWAP3 SWAP2 POP POP JUMP JUMPDEST PUSH1 0x0 JUMPDEST DUP4 DUP2 LT ISZERO PUSH2 0x20B8 JUMPI DUP1 DUP3 ADD MLOAD DUP2 DUP5 ADD MSTORE PUSH1 0x20 DUP2 ADD SWAP1 POP PUSH2 0x209D JUMP JUMPDEST PUSH1 0x0 DUP5 DUP5 ADD MSTORE POP POP POP POP JUMP JUMPDEST PUSH1 0x0 PUSH1 0x1F NOT PUSH1 0x1F DUP4 ADD AND SWAP1 POP SWAP2 SWAP1 POP JUMP JUMPDEST PUSH1 0x0 PUSH2 0x20E0 DUP3 PUSH2 0x207E JUMP JUMPDEST PUSH2 0x20EA DUP2 DUP6 PUSH2 0x2089 JUMP JUMPDEST SWAP4 POP PUSH2 0x20FA DUP2 DUP6 PUSH1 0x20 DUP7 ADD PUSH2 0x209A JUMP JUMPDEST PUSH2 0x2103 DUP2 PUSH2 0x20C4 JUMP JUMPDEST DUP5 ADD SWAP2 POP POP SWAP3 SWAP2 POP POP JUMP JUMPDEST PUSH1 0x0 PUSH1 0x20 DUP3 ADD SWAP1 POP DUP2 DUP2 SUB PUSH1 0x0 DUP4 ADD MSTORE PUSH2 0x2128 DUP2 DUP5 PUSH2 0x20D5 JUMP JUMPDEST SWAP1 POP SWAP3 SWAP2 POP POP JUMP JUMPDEST PUSH1 0x0 DUP2 SWAP1 POP SWAP2 SWAP1 POP JUMP JUMPDEST PUSH2 0x2143 DUP2 PUSH2 0x2130 JUMP JUMPDEST DUP2 EQ PUSH2 0x214E JUMPI PUSH1 0x0 DUP1 REVERT JUMPDEST POP JUMP JUMPDEST PUSH1 0x0 DUP2 CALLDATALOAD SWAP1 POP PUSH2 0x2160 DUP2 PUSH2 0x213A JUMP JUMPDEST SWAP3 SWAP2 POP POP JUMP JUMPDEST PUSH1 0x0 PUSH1 0x20 DUP3 DUP5 SUB SLT ISZERO PUSH2 0x217C JUMPI PUSH2 0x217B PUSH2 0x1F27 JUMP JUMPDEST JUMPDEST PUSH1 0x0 PUSH2 0x218A DUP5 DUP3 DUP6 ADD PUSH2 0x2151 JUMP JUMPDEST SWAP2 POP POP SWAP3 SWAP2 POP POP JUMP JUMPDEST PUSH1 0x0 PUSH20 0xFFFFFFFFFFFFFFFFFFFFFFFFFFFFFFFFFFFFFFFF DUP3 AND SWAP1 POP SWAP2 SWAP1 POP JUMP JUMPDEST PUSH1 0x0 PUSH2 0x21BE DUP3 PUSH2 0x2193 JUMP JUMPDEST SWAP1 POP SWAP2 SWAP1 POP JUMP JUMPDEST PUSH2 0x21CE DUP2 PUSH2 0x21B3 JUMP JUMPDEST DUP3 MSTORE POP POP JUMP JUMPDEST PUSH1 0x0 PUSH1 0x20 DUP3 ADD SWAP1 POP PUSH2 0x21E9 PUSH1 0x0 DUP4 ADD DUP5 PUSH2 0x21C5 JUMP JUMPDEST SWAP3 SWAP2 POP POP JUMP JUMPDEST PUSH2 0x21F8 DUP2 PUSH2 0x21B3 JUMP JUMPDEST DUP2 EQ PUSH2 0x2203 JUMPI PUSH1 0x0 DUP1 REVERT JUMPDEST POP JUMP JUMPDEST PUSH1 0x0 DUP2 CALLDATALOAD SWAP1 POP PUSH2 0x2215 DUP2 PUSH2 0x21EF JUMP JUMPDEST SWAP3 SWAP2 POP POP JUMP JUMPDEST PUSH1 0x0 DUP1 PUSH1 0x40 DUP4 DUP6 SUB SLT ISZERO PUSH2 0x2232 JUMPI PUSH2 0x2231 PUSH2 0x1F27 JUMP JUMPDEST JUMPDEST PUSH1 0x0 PUSH2 0x2240 DUP6 DUP3 DUP7 ADD PUSH2 0x2206 JUMP JUMPDEST SWAP3 POP POP PUSH1 0x20 PUSH2 0x2251 DUP6 DUP3 DUP7 ADD PUSH2 0x2151 JUMP JUMPDEST SWAP2 POP POP SWAP3 POP SWAP3 SWAP1 POP JUMP JUMPDEST PUSH2 0x2264 DUP2 PUSH2 0x2130 JUMP JUMPDEST DUP3 MSTORE POP POP JUMP JUMPDEST PUSH1 0x0 PUSH1 0x20 DUP3 ADD SWAP1 POP PUSH2 0x227F PUSH1 0x0 DUP4 ADD DUP5 PUSH2 0x225B JUMP JUMPDEST SWAP3 SWAP2 POP POP JUMP JUMPDEST PUSH1 0x0 DUP1 PUSH1 0x0 PUSH1 0x60 DUP5 DUP7 SUB SLT ISZERO PUSH2 0x229E JUMPI PUSH2 0x229D PUSH2 0x1F27 JUMP JUMPDEST JUMPDEST PUSH1 0x0 PUSH2 0x22AC DUP7 DUP3 DUP8 ADD PUSH2 0x2206 JUMP JUMPDEST SWAP4 POP POP PUSH1 0x20 PUSH2 0x22BD DUP7 DUP3 DUP8 ADD PUSH2 0x2206 JUMP JUMPDEST SWAP3 POP POP PUSH1 0x40 PUSH2 0x22CE DUP7 DUP3 DUP8 ADD PUSH2 0x2151 JUMP JUMPDEST SWAP2 POP POP SWAP3 POP SWAP3 POP SWAP3 JUMP JUMPDEST PUSH1 0x0 PUSH1 0x20 DUP3 DUP5 SUB SLT ISZERO PUSH2 0x22EE JUMPI PUSH2 0x22ED PUSH2 0x1F27 JUMP JUMPDEST JUMPDEST PUSH1 0x0 PUSH2 0x22FC DUP5 DUP3 DUP6 ADD PUSH2 0x2206 JUMP JUMPDEST SWAP2 POP POP SWAP3 SWAP2 POP POP JUMP JUMPDEST PUSH2 0x230E DUP2 PUSH2 0x1FB6 JUMP JUMPDEST DUP2 EQ PUSH2 0x2319 JUMPI PUSH1 0x0 DUP1 REVERT JUMPDEST POP JUMP JUMPDEST PUSH1 0x0 DUP2 CALLDATALOAD SWAP1 POP PUSH2 0x232B DUP2 PUSH2 0x2305 JUMP JUMPDEST SWAP3 SWAP2 POP POP JUMP JUMPDEST PUSH1 0x0 DUP1 PUSH1 0x40 DUP4 DUP6 SUB SLT ISZERO PUSH2 0x2348 JUMPI PUSH2 0x2347 PUSH2 0x1F27 JUMP JUMPDEST JUMPDEST PUSH1 0x0 PUSH2 0x2356 DUP6 DUP3 DUP7 ADD PUSH2 0x2206 JUMP JUMPDEST SWAP3 POP POP PUSH1 0x20 PUSH2 0x2367 DUP6 DUP3 DUP7 ADD PUSH2 0x231C JUMP JUMPDEST SWAP2 POP POP SWAP3 POP SWAP3 SWAP1 POP JUMP JUMPDEST PUSH1 0x0 DUP1 REVERT JUMPDEST PUSH1 0x0 DUP1 REVERT JUMPDEST PUSH32 0x4E487B7100000000000000000000000000000000000000000000000000000000 PUSH1 0x0 MSTORE PUSH1 0x41 PUSH1 0x4 MSTORE PUSH1 0x24 PUSH1 0x0 REVERT JUMPDEST PUSH2 0x23B3 DUP3 PUSH2 0x20C4 JUMP JUMPDEST DUP2 ADD DUP2 DUP2 LT PUSH8 0xFFFFFFFFFFFFFFFF DUP3 GT OR ISZERO PUSH2 0x23D2 JUMPI PUSH2 0x23D1 PUSH2 0x237B JUMP JUMPDEST JUMPDEST DUP1 PUSH1 0x40 MSTORE POP POP POP JUMP JUMPDEST PUSH1 0x0 PUSH2 0x23E5 PUSH2 0x1F1D JUMP JUMPDEST SWAP1 POP PUSH2 0x23F1 DUP3 DUP3 PUSH2 0x23AA JUMP JUMPDEST SWAP2 SWAP1 POP JUMP JUMPDEST PUSH1 0x0 PUSH8 0xFFFFFFFFFFFFFFFF DUP3 GT ISZERO PUSH2 0x2411 JUMPI PUSH2 0x2410 PUSH2 0x237B JUMP JUMPDEST JUMPDEST PUSH2 0x241A DUP3 PUSH2 0x20C4 JUMP JUMPDEST SWAP1 POP PUSH1 0x20 DUP2 ADD SWAP1 POP SWAP2 SWAP1 POP JUMP JUMPDEST DUP3 DUP2 DUP4 CALLDATACOPY PUSH1 0x0 DUP4 DUP4 ADD MSTORE POP POP POP JUMP JUMPDEST PUSH1 0x0 PUSH2 0x2449 PUSH2 0x2444 DUP5 PUSH2 0x23F6 JUMP JUMPDEST PUSH2 0x23DB JUMP JUMPDEST SWAP1 POP DUP3 DUP2 MSTORE PUSH1 0x20 DUP2 ADD DUP5 DUP5 DUP5 ADD GT ISZERO PUSH2 0x2465 JUMPI PUSH2 0x2464 PUSH2 0x2376 JUMP JUMPDEST JUMPDEST PUSH2 0x2470 DUP5 DUP3 DUP6 PUSH2 0x2427 JUMP JUMPDEST POP SWAP4 SWAP3 POP POP POP JUMP JUMPDEST PUSH1 0x0 DUP3 PUSH1 0x1F DUP4 ADD SLT PUSH2 0x248D JUMPI PUSH2 0x248C PUSH2 0x2371 JUMP JUMPDEST JUMPDEST DUP2 CALLDATALOAD PUSH2 0x249D DUP5 DUP3 PUSH1 0x20 DUP7 ADD PUSH2 0x2436 JUMP JUMPDEST SWAP2 POP POP SWAP3 SWAP2 POP POP JUMP JUMPDEST PUSH1 0x0 DUP1 PUSH1 0x0 DUP1 PUSH1 0x80 DUP6 DUP8 SUB SLT ISZERO PUSH2 0x24C0 JUMPI PUSH2 0x24BF PUSH2 0x1F27 JUMP JUMPDEST JUMPDEST PUSH1 0x0 PUSH2 0x24CE DUP8 DUP3 DUP9 ADD PUSH2 0x2206 JUMP JUMPDEST SWAP5 POP POP PUSH1 0x20 PUSH2 0x24DF DUP8 DUP3 DUP9 ADD PUSH2 0x2206 JUMP JUMPDEST SWAP4 POP POP PUSH1 0x40 PUSH2 0x24F0 DUP8 DUP3 DUP9 ADD PUSH2 0x2151 JUMP JUMPDEST SWAP3 POP POP PUSH1 0x60 DUP6 ADD CALLDATALOAD PUSH8 0xFFFFFFFFFFFFFFFF DUP2 GT ISZERO PUSH2 0x2511 JUMPI PUSH2 0x2510 PUSH2 0x1F2C JUMP JUMPDEST JUMPDEST PUSH2 0x251D DUP8 DUP3 DUP9 ADD PUSH2 0x2478 JUMP JUMPDEST SWAP2 POP POP SWAP3 SWAP6 SWAP2 SWAP5 POP SWAP3 POP JUMP JUMPDEST PUSH1 0x0 DUP1 PUSH1 0x40 DUP4 DUP6 SUB SLT ISZERO PUSH2 0x2540 JUMPI PUSH2 0x253F PUSH2 0x1F27 JUMP JUMPDEST JUMPDEST PUSH1 0x0 PUSH2 0x254E DUP6 DUP3 DUP7 ADD PUSH2 0x2206 JUMP JUMPDEST SWAP3 POP POP PUSH1 0x20 PUSH2 0x255F DUP6 DUP3 DUP7 ADD PUSH2 0x2206 JUMP JUMPDEST SWAP2 POP POP SWAP3 POP SWAP3 SWAP1 POP JUMP JUMPDEST PUSH32 0x4E487B7100000000000000000000000000000000000000000000000000000000 PUSH1 0x0 MSTORE PUSH1 0x22 PUSH1 0x4 MSTORE PUSH1 0x24 PUSH1 0x0 REVERT JUMPDEST PUSH1 0x0 PUSH1 0x2 DUP3 DIV SWAP1 POP PUSH1 0x1 DUP3 AND DUP1 PUSH2 0x25B0 JUMPI PUSH1 0x7F DUP3 AND SWAP2 POP JUMPDEST PUSH1 0x20 DUP3 LT DUP2 SUB PUSH2 0x25C3 JUMPI PUSH2 0x25C2 PUSH2 0x2569 JUMP JUMPDEST JUMPDEST POP SWAP2 SWAP1 POP JUMP JUMPDEST PUSH32 0x4552433732313A20617070726F76616C20746F2063757272656E74206F776E65 PUSH1 0x0 DUP3 ADD MSTORE PUSH32 0x7200000000000000000000000000000000000000000000000000000000000000 PUSH1 0x20 DUP3 ADD MSTORE POP JUMP JUMPDEST PUSH1 0x0 PUSH2 0x2625 PUSH1 0x21 DUP4 PUSH2 0x2089 JUMP JUMPDEST SWAP2 POP PUSH2 0x2630 DUP3 PUSH2 0x25C9 JUMP JUMPDEST PUSH1 0x40 DUP3 ADD SWAP1 POP SWAP2 SWAP1 POP JUMP JUMPDEST PUSH1 0x0 PUSH1 0x20 DUP3 ADD SWAP1 POP DUP2 DUP2 SUB PUSH1 0x0 DUP4 ADD MSTORE PUSH2 0x2654 DUP2 PUSH2 0x2618 JUMP JUMPDEST SWAP1 POP SWAP2 SWAP1 POP JUMP JUMPDEST PUSH32 0x4552433732313A20617070726F76652063616C6C6572206973206E6F7420746F PUSH1 0x0 DUP3 ADD MSTORE PUSH32 0x6B656E206F776E6572206F7220617070726F76656420666F7220616C6C000000 PUSH1 0x20 DUP3 ADD MSTORE POP JUMP JUMPDEST PUSH1 0x0 PUSH2 0x26B7 PUSH1 0x3D DUP4 PUSH2 0x2089 JUMP JUMPDEST SWAP2 POP PUSH2 0x26C2 DUP3 PUSH2 0x265B JUMP JUMPDEST PUSH1 0x40 DUP3 ADD SWAP1 POP SWAP2 SWAP1 POP JUMP JUMPDEST PUSH1 0x0 PUSH1 0x20 DUP3 ADD SWAP1 POP DUP2 DUP2 SUB PUSH1 0x0 DUP4 ADD MSTORE PUSH2 0x26E6 DUP2 PUSH2 0x26AA JUMP JUMPDEST SWAP1 POP SWAP2 SWAP1 POP JUMP JUMPDEST PUSH32 0x4552433732313A2063616C6C6572206973206E6F7420746F6B656E206F776E65 PUSH1 0x0 DUP3 ADD MSTORE PUSH32 0x72206F7220617070726F76656400000000000000000000000000000000000000 PUSH1 0x20 DUP3 ADD MSTORE POP JUMP JUMPDEST PUSH1 0x0 PUSH2 0x2749 PUSH1 0x2D DUP4 PUSH2 0x2089 JUMP JUMPDEST SWAP2 POP PUSH2 0x2754 DUP3 PUSH2 0x26ED JUMP JUMPDEST PUSH1 0x40 DUP3 ADD SWAP1 POP SWAP2 SWAP1 POP JUMP JUMPDEST PUSH1 0x0 PUSH1 0x20 DUP3 ADD SWAP1 POP DUP2 DUP2 SUB PUSH1 0x0 DUP4 ADD MSTORE PUSH2 0x2778 DUP2 PUSH2 0x273C JUMP JUMPDEST SWAP1 POP SWAP2 SWAP1 POP JUMP JUMPDEST PUSH32 0x4552433732313A20696E76616C696420746F6B656E2049440000000000000000 PUSH1 0x0 DUP3 ADD MSTORE POP JUMP JUMPDEST PUSH1 0x0 PUSH2 0x27B5 PUSH1 0x18 DUP4 PUSH2 0x2089 JUMP JUMPDEST SWAP2 POP PUSH2 0x27C0 DUP3 PUSH2 0x277F JUMP JUMPDEST PUSH1 0x20 DUP3 ADD SWAP1 POP SWAP2 SWAP1 POP JUMP JUMPDEST PUSH1 0x0 PUSH1 0x20 DUP3 ADD SWAP1 POP DUP2 DUP2 SUB PUSH1 0x0 DUP4 ADD MSTORE PUSH2 0x27E4 DUP2 PUSH2 0x27A8 JUMP JUMPDEST SWAP1 POP SWAP2 SWAP1 POP JUMP JUMPDEST PUSH32 0x4552433732313A2061646472657373207A65726F206973206E6F742061207661 PUSH1 0x0 DUP3 ADD MSTORE PUSH32 0x6C6964206F776E65720000000000000000000000000000000000000000000000 PUSH1 0x20 DUP3 ADD MSTORE POP JUMP JUMPDEST PUSH1 0x0 PUSH2 0x2847 PUSH1 0x29 DUP4 PUSH2 0x2089 JUMP JUMPDEST SWAP2 POP PUSH2 0x2852 DUP3 PUSH2 0x27EB JUMP JUMPDEST PUSH1 0x40 DUP3 ADD SWAP1 POP SWAP2 SWAP1 POP JUMP JUMPDEST PUSH1 0x0 PUSH1 0x20 DUP3 ADD SWAP1 POP DUP2 DUP2 SUB PUSH1 0x0 DUP4 ADD MSTORE PUSH2 0x2876 DUP2 PUSH2 0x283A JUMP JUMPDEST SWAP1 POP SWAP2 SWAP1 POP JUMP JUMPDEST PUSH32 0x4E487B7100000000000000000000000000000000000000000000000000000000 PUSH1 0x0 MSTORE PUSH1 0x11 PUSH1 0x4 MSTORE PUSH1 0x24 PUSH1 0x0 REVERT JUMPDEST PUSH1 0x0 PUSH2 0x28B7 DUP3 PUSH2 0x2130 JUMP JUMPDEST SWAP2 POP PUSH2 0x28C2 DUP4 PUSH2 0x2130 JUMP JUMPDEST SWAP3 POP DUP3 DUP3 ADD SWAP1 POP DUP1 DUP3 GT ISZERO PUSH2 0x28DA JUMPI PUSH2 0x28D9 PUSH2 0x287D JUMP JUMPDEST JUMPDEST SWAP3 SWAP2 POP POP JUMP JUMPDEST PUSH1 0x0 PUSH2 0x28EB DUP3 PUSH2 0x2130 JUMP JUMPDEST SWAP2 POP PUSH2 0x28F6 DUP4 PUSH2 0x2130 JUMP JUMPDEST SWAP3 POP DUP3 DUP3 MUL PUSH2 0x2904 DUP2 PUSH2 0x2130 JUMP JUMPDEST SWAP2 POP DUP3 DUP3 DIV DUP5 EQ DUP4 ISZERO OR PUSH2 0x291B JUMPI PUSH2 0x291A PUSH2 0x287D JUMP JUMPDEST JUMPDEST POP SWAP3 SWAP2 POP POP JUMP JUMPDEST PUSH1 0x0 DUP2 SWAP1 POP SWAP3 SWAP2 POP POP JUMP JUMPDEST PUSH1 0x0 PUSH2 0x2938 DUP3 PUSH2 0x207E JUMP JUMPDEST PUSH2 0x2942 DUP2 DUP6 PUSH2 0x2922 JUMP JUMPDEST SWAP4 POP PUSH2 0x2952 DUP2 DUP6 PUSH1 0x20 DUP7 ADD PUSH2 0x209A JUMP JUMPDEST DUP1 DUP5 ADD SWAP2 POP POP SWAP3 SWAP2 POP POP JUMP JUMPDEST PUSH1 0x0 PUSH2 0x296A DUP3 DUP6 PUSH2 0x292D JUMP JUMPDEST SWAP2 POP PUSH2 0x2976 DUP3 DUP5 PUSH2 0x292D JUMP JUMPDEST SWAP2 POP DUP2 SWAP1 POP SWAP4 SWAP3 POP POP POP JUMP JUMPDEST PUSH32 0x4F776E61626C653A206E6577206F776E657220697320746865207A65726F2061 PUSH1 0x0 DUP3 ADD MSTORE PUSH32 0x6464726573730000000000000000000000000000000000000000000000000000 PUSH1 0x20 DUP3 ADD MSTORE POP JUMP JUMPDEST PUSH1 0x0 PUSH2 0x29DE PUSH1 0x26 DUP4 PUSH2 0x2089 JUMP JUMPDEST SWAP2 POP PUSH2 0x29E9 DUP3 PUSH2 0x2982 JUMP JUMPDEST PUSH1 0x40 DUP3 ADD SWAP1 POP SWAP2 SWAP1 POP JUMP JUMPDEST PUSH1 0x0 PUSH1 0x20 DUP3 ADD SWAP1 POP DUP2 DUP2 SUB PUSH1 0x0 DUP4 ADD MSTORE PUSH2 0x2A0D DUP2 PUSH2 0x29D1 JUMP JUMPDEST SWAP1 POP SWAP2 SWAP1 POP JUMP JUMPDEST PUSH32 0x4552433732313A207472616E736665722066726F6D20696E636F727265637420 PUSH1 0x0 DUP3 ADD MSTORE PUSH32 0x6F776E6572000000000000000000000000000000000000000000000000000000 PUSH1 0x20 DUP3 ADD MSTORE POP JUMP JUMPDEST PUSH1 0x0 PUSH2 0x2A70 PUSH1 0x25 DUP4 PUSH2 0x2089 JUMP JUMPDEST SWAP2 POP PUSH2 0x2A7B DUP3 PUSH2 0x2A14 JUMP JUMPDEST PUSH1 0x40 DUP3 ADD SWAP1 POP SWAP2 SWAP1 POP JUMP JUMPDEST PUSH1 0x0 PUSH1 0x20 DUP3 ADD SWAP1 POP DUP2 DUP2 SUB PUSH1 0x0 DUP4 ADD MSTORE PUSH2 0x2A9F DUP2 PUSH2 0x2A63 JUMP JUMPDEST SWAP1 POP SWAP2 SWAP1 POP JUMP JUMPDEST PUSH32 0x4552433732313A207472616E7366657220746F20746865207A65726F20616464 PUSH1 0x0 DUP3 ADD MSTORE PUSH32 0x7265737300000000000000000000000000000000000000000000000000000000 PUSH1 0x20 DUP3 ADD MSTORE POP JUMP JUMPDEST PUSH1 0x0 PUSH2 0x2B02 PUSH1 0x24 DUP4 PUSH2 0x2089 JUMP JUMPDEST SWAP2 POP PUSH2 0x2B0D DUP3 PUSH2 0x2AA6 JUMP JUMPDEST PUSH1 0x40 DUP3 ADD SWAP1 POP SWAP2 SWAP1 POP JUMP JUMPDEST PUSH1 0x0 PUSH1 0x20 DUP3 ADD SWAP1 POP DUP2 DUP2 SUB PUSH1 0x0 DUP4 ADD MSTORE PUSH2 0x2B31 DUP2 PUSH2 0x2AF5 JUMP JUMPDEST SWAP1 POP SWAP2 SWAP1 POP JUMP JUMPDEST PUSH32 0x4F776E61626C653A2063616C6C6572206973206E6F7420746865206F776E6572 PUSH1 0x0 DUP3 ADD MSTORE POP JUMP JUMPDEST PUSH1 0x0 PUSH2 0x2B6E PUSH1 0x20 DUP4 PUSH2 0x2089 JUMP JUMPDEST SWAP2 POP PUSH2 0x2B79 DUP3 PUSH2 0x2B38 JUMP JUMPDEST PUSH1 0x20 DUP3 ADD SWAP1 POP SWAP2 SWAP1 POP JUMP JUMPDEST PUSH1 0x0 PUSH1 0x20 DUP3 ADD SWAP1 POP DUP2 DUP2 SUB PUSH1 0x0 DUP4 ADD MSTORE PUSH2 0x2B9D DUP2 PUSH2 0x2B61 JUMP JUMPDEST SWAP1 POP SWAP2 SWAP1 POP JUMP JUMPDEST PUSH32 0x4552433732313A20617070726F766520746F2063616C6C657200000000000000 PUSH1 0x0 DUP3 ADD MSTORE POP JUMP JUMPDEST PUSH1 0x0 PUSH2 0x2BDA PUSH1 0x19 DUP4 PUSH2 0x2089 JUMP JUMPDEST SWAP2 POP PUSH2 0x2BE5 DUP3 PUSH2 0x2BA4 JUMP JUMPDEST PUSH1 0x20 DUP3 ADD SWAP1 POP SWAP2 SWAP1 POP JUMP JUMPDEST PUSH1 0x0 PUSH1 0x20 DUP3 ADD SWAP1 POP DUP2 DUP2 SUB PUSH1 0x0 DUP4 ADD MSTORE PUSH2 0x2C09 DUP2 PUSH2 0x2BCD JUMP JUMPDEST SWAP1 POP SWAP2 SWAP1 POP JUMP JUMPDEST PUSH1 0x0 PUSH2 0x2C1B DUP3 PUSH2 0x2130 JUMP JUMPDEST SWAP2 POP PUSH32 0xFFFFFFFFFFFFFFFFFFFFFFFFFFFFFFFFFFFFFFFFFFFFFFFFFFFFFFFFFFFFFFFF DUP3 SUB PUSH2 0x2C4D JUMPI PUSH2 0x2C4C PUSH2 0x287D JUMP JUMPDEST JUMPDEST PUSH1 0x1 DUP3 ADD SWAP1 POP SWAP2 SWAP1 POP JUMP JUMPDEST PUSH1 0x0 PUSH2 0x2C63 DUP3 PUSH2 0x2130 JUMP JUMPDEST SWAP2 POP PUSH2 0x2C6E DUP4 PUSH2 0x2130 JUMP JUMPDEST SWAP3 POP DUP3 DUP3 SUB SWAP1 POP DUP2 DUP2 GT ISZERO PUSH2 0x2C86 JUMPI PUSH2 0x2C85 PUSH2 0x287D JUMP JUMPDEST JUMPDEST SWAP3 SWAP2 POP POP JUMP JUMPDEST PUSH1 0x0 DUP2 SWAP1 POP SWAP3 SWAP2 POP POP JUMP JUMPDEST POP JUMP JUMPDEST PUSH1 0x0 PUSH2 0x2CA7 PUSH1 0x0 DUP4 PUSH2 0x2C8C JUMP JUMPDEST SWAP2 POP PUSH2 0x2CB2 DUP3 PUSH2 0x2C97 JUMP JUMPDEST PUSH1 0x0 DUP3 ADD SWAP1 POP SWAP2 SWAP1 POP JUMP JUMPDEST PUSH1 0x0 PUSH2 0x2CC8 DUP3 PUSH2 0x2C9A JUMP JUMPDEST SWAP2 POP DUP2 SWAP1 POP SWAP2 SWAP1 POP JUMP JUMPDEST PUSH32 0x4552433732313A207472616E7366657220746F206E6F6E204552433732315265 PUSH1 0x0 DUP3 ADD MSTORE PUSH32 0x63656976657220696D706C656D656E7465720000000000000000000000000000 PUSH1 0x20 DUP3 ADD MSTORE POP JUMP JUMPDEST PUSH1 0x0 PUSH2 0x2D2E PUSH1 0x32 DUP4 PUSH2 0x2089 JUMP JUMPDEST SWAP2 POP PUSH2 0x2D39 DUP3 PUSH2 0x2CD2 JUMP JUMPDEST PUSH1 0x40 DUP3 ADD SWAP1 POP SWAP2 SWAP1 POP JUMP JUMPDEST PUSH1 0x0 PUSH1 0x20 DUP3 ADD SWAP1 POP DUP2 DUP2 SUB PUSH1 0x0 DUP4 ADD MSTORE PUSH2 0x2D5D DUP2 PUSH2 0x2D21 JUMP JUMPDEST SWAP1 POP SWAP2 SWAP1 POP JUMP JUMPDEST PUSH32 0x4E487B7100000000000000000000000000000000000000000000000000000000 PUSH1 0x0 MSTORE PUSH1 0x12 PUSH1 0x4 MSTORE PUSH1 0x24 PUSH1 0x0 REVERT JUMPDEST PUSH32 0x4552433732313A206D696E7420746F20746865207A65726F2061646472657373 PUSH1 0x0 DUP3 ADD MSTORE POP JUMP JUMPDEST PUSH1 0x0 PUSH2 0x2DC9 PUSH1 0x20 DUP4 PUSH2 0x2089 JUMP JUMPDEST SWAP2 POP PUSH2 0x2DD4 DUP3 PUSH2 0x2D93 JUMP JUMPDEST PUSH1 0x20 DUP3 ADD SWAP1 POP SWAP2 SWAP1 POP JUMP JUMPDEST PUSH1 0x0 PUSH1 0x20 DUP3 ADD SWAP1 POP DUP2 DUP2 SUB PUSH1 0x0 DUP4 ADD MSTORE PUSH2 0x2DF8 DUP2 PUSH2 0x2DBC JUMP JUMPDEST SWAP1 POP SWAP2 SWAP1 POP JUMP JUMPDEST PUSH32 0x4552433732313A20746F6B656E20616C7265616479206D696E74656400000000 PUSH1 0x0 DUP3 ADD MSTORE POP JUMP JUMPDEST PUSH1 0x0 PUSH2 0x2E35 PUSH1 0x1C DUP4 PUSH2 0x2089 JUMP JUMPDEST SWAP2 POP PUSH2 0x2E40 DUP3 PUSH2 0x2DFF JUMP JUMPDEST PUSH1 0x20 DUP3 ADD SWAP1 POP SWAP2 SWAP1 POP JUMP JUMPDEST PUSH1 0x0 PUSH1 0x20 DUP3 ADD SWAP1 POP DUP2 DUP2 SUB PUSH1 0x0 DUP4 ADD MSTORE PUSH2 0x2E64 DUP2 PUSH2 0x2E28 JUMP JUMPDEST SWAP1 POP SWAP2 SWAP1 POP JUMP JUMPDEST PUSH1 0x0 DUP2 MLOAD SWAP1 POP SWAP2 SWAP1 POP JUMP JUMPDEST PUSH1 0x0 DUP3 DUP3 MSTORE PUSH1 0x20 DUP3 ADD SWAP1 POP SWAP3 SWAP2 POP POP JUMP JUMPDEST PUSH1 0x0 PUSH2 0x2E92 DUP3 PUSH2 0x2E6B JUMP JUMPDEST PUSH2 0x2E9C DUP2 DUP6 PUSH2 0x2E76 JUMP JUMPDEST SWAP4 POP PUSH2 0x2EAC DUP2 DUP6 PUSH1 0x20 DUP7 ADD PUSH2 0x209A JUMP JUMPDEST PUSH2 0x2EB5 DUP2 PUSH2 0x20C4 JUMP JUMPDEST DUP5 ADD SWAP2 POP POP SWAP3 SWAP2 POP POP JUMP JUMPDEST PUSH1 0x0 PUSH1 0x80 DUP3 ADD SWAP1 POP PUSH2 0x2ED5 PUSH1 0x0 DUP4 ADD DUP8 PUSH2 0x21C5 JUMP JUMPDEST PUSH2 0x2EE2 PUSH1 0x20 DUP4 ADD DUP7 PUSH2 0x21C5 JUMP JUMPDEST PUSH2 0x2EEF PUSH1 0x40 DUP4 ADD DUP6 PUSH2 0x225B JUMP JUMPDEST DUP2 DUP2 SUB PUSH1 0x60 DUP4 ADD MSTORE PUSH2 0x2F01 DUP2 DUP5 PUSH2 0x2E87 JUMP JUMPDEST SWAP1 POP SWAP6 SWAP5 POP POP POP POP POP JUMP JUMPDEST PUSH1 0x0 DUP2 MLOAD SWAP1 POP PUSH2 0x2F1B DUP2 PUSH2 0x1F5D JUMP JUMPDEST SWAP3 SWAP2 POP POP JUMP JUMPDEST PUSH1 0x0 PUSH1 0x20 DUP3 DUP5 SUB SLT ISZERO PUSH2 0x2F37 JUMPI PUSH2 0x2F36 PUSH2 0x1F27 JUMP JUMPDEST JUMPDEST PUSH1 0x0 PUSH2 0x2F45 DUP5 DUP3 DUP6 ADD PUSH2 0x2F0C JUMP JUMPDEST SWAP2 POP POP SWAP3 SWAP2 POP POP JUMP INVALID LOG2 PUSH5 0x6970667358 0x22 SLT KECCAK256 PUSH2 0x6C7E 0xC1 DUP14 0xBA 0x23 DUP16 0xFC CHAINID BLOCKHASH STATICCALL DIV 0x1E PUSH15 0x8922A49DF7862F89FC752C5C6FF07D BYTE SWAP9 PUSH5 0x736F6C6343 STOP ADDMOD SLT STOP CALLER "
		},
		"gasEstimates": {
			"creation": {
				"codeDepositCost": "2432800",
				"executionCost": "infinite",
				"totalCost": "infinite"
			},
			"external": {
				"approve(address,uint256)": "infinite",
				"balanceOf(address)": "2899",
				"collectionSize()": "2518",
				"currentPhase()": "4742",
				"getApproved(uint256)": "5322",
				"isApprovedForAll(address,address)": "infinite",
				"maxBatchSize()": "2474",
				"maxPerAddressDuringMint()": "2496",
				"name()": "infinite",
				"numberMinted(address)": "2963",
				"owner()": "2611",
				"ownerOf(uint256)": "3110",
				"publicSaleMint(uint256)": "7484",
				"publicSaleStartTime()": "2562",
				"renounceOwnership()": "30443",
				"safeTransferFrom(address,address,uint256)": "infinite",
				"safeTransferFrom(address,address,uint256,bytes)": "infinite",
				"salePrice()": "2539",
				"setApprovalForAll(address,bool)": "infinite",
				"supportsInterface(bytes4)": "797",
				"symbol()": "infinite",
				"tokenURI(uint256)": "3482",
				"totalSupply()": "2620",
				"transferFrom(address,address,uint256)": "infinite",
				"transferOwnership(address)": "30832"
			}
		},
		"methodIdentifiers": {
			"approve(address,uint256)": "095ea7b3",
			"balanceOf(address)": "70a08231",
			"collectionSize()": "45c0f533",
			"currentPhase()": "055ad42e",
			"getApproved(uint256)": "081812fc",
			"isApprovedForAll(address,address)": "e985e9c5",
			"maxBatchSize()": "2913daa0",
			"maxPerAddressDuringMint()": "8bc35c2f",
			"name()": "06fdde03",
			"numberMinted(address)": "dc33e681",
			"owner()": "8da5cb5b",
			"ownerOf(uint256)": "6352211e",
			"publicSaleMint(uint256)": "b3ab66b0",
			"publicSaleStartTime()": "6bb7b1d9",
			"renounceOwnership()": "715018a6",
			"safeTransferFrom(address,address,uint256)": "42842e0e",
			"safeTransferFrom(address,address,uint256,bytes)": "b88d4fde",
			"salePrice()": "f51f96dd",
			"setApprovalForAll(address,bool)": "a22cb465",
			"supportsInterface(bytes4)": "01ffc9a7",
			"symbol()": "95d89b41",
			"tokenURI(uint256)": "c87b56dd",
			"totalSupply()": "18160ddd",
			"transferFrom(address,address,uint256)": "23b872dd",
			"transferOwnership(address)": "f2fde38b"
		}
	},
	"abi": [
		{
			"inputs": [
				{
					"internalType": "uint256",
					"name": "_collectionSize",
					"type": "uint256"
				},
				{
					"internalType": "uint256",
					"name": "_maxBatchSize",
					"type": "uint256"
				},
				{
					"internalType": "uint256",
					"name": "_maxPerAddressDuringMint",
					"type": "uint256"
				}
			],
			"stateMutability": "nonpayable",
			"type": "constructor"
		},
		{
			"inputs": [],
			"name": "Launchpeg__CanNotMintThisMany",
			"type": "error"
		},
		{
			"inputs": [],
			"name": "Launchpeg__MaxSupplyReached",
			"type": "error"
		},
		{
			"inputs": [
				{
					"internalType": "uint256",
					"name": "fundsSent",
					"type": "uint256"
				}
			],
			"name": "Launchpeg__NotEnoughFunds",
			"type": "error"
		},
		{
			"inputs": [],
			"name": "Launchpeg__TransferFailed",
			"type": "error"
		},
		{
			"inputs": [],
			"name": "Launchpeg__Unauthorized",
			"type": "error"
		},
		{
			"inputs": [],
			"name": "Launchpeg__WrongPhase",
			"type": "error"
		},
		{
			"anonymous": false,
			"inputs": [
				{
					"indexed": true,
					"internalType": "address",
					"name": "owner",
					"type": "address"
				},
				{
					"indexed": true,
					"internalType": "address",
					"name": "approved",
					"type": "address"
				},
				{
					"indexed": true,
					"internalType": "uint256",
					"name": "tokenId",
					"type": "uint256"
				}
			],
			"name": "Approval",
			"type": "event"
		},
		{
			"anonymous": false,
			"inputs": [
				{
					"indexed": true,
					"internalType": "address",
					"name": "owner",
					"type": "address"
				},
				{
					"indexed": true,
					"internalType": "address",
					"name": "operator",
					"type": "address"
				},
				{
					"indexed": false,
					"internalType": "bool",
					"name": "approved",
					"type": "bool"
				}
			],
			"name": "ApprovalForAll",
			"type": "event"
		},
		{
			"anonymous": false,
			"inputs": [
				{
					"indexed": true,
					"internalType": "address",
					"name": "previousOwner",
					"type": "address"
				},
				{
					"indexed": true,
					"internalType": "address",
					"name": "newOwner",
					"type": "address"
				}
			],
			"name": "OwnershipTransferred",
			"type": "event"
		},
		{
			"anonymous": false,
			"inputs": [
				{
					"indexed": true,
					"internalType": "address",
					"name": "from",
					"type": "address"
				},
				{
					"indexed": true,
					"internalType": "address",
					"name": "to",
					"type": "address"
				},
				{
					"indexed": true,
					"internalType": "uint256",
					"name": "tokenId",
					"type": "uint256"
				}
			],
			"name": "Transfer",
			"type": "event"
		},
		{
			"inputs": [
				{
					"internalType": "address",
					"name": "to",
					"type": "address"
				},
				{
					"internalType": "uint256",
					"name": "tokenId",
					"type": "uint256"
				}
			],
			"name": "approve",
			"outputs": [],
			"stateMutability": "nonpayable",
			"type": "function"
		},
		{
			"inputs": [
				{
					"internalType": "address",
					"name": "owner",
					"type": "address"
				}
			],
			"name": "balanceOf",
			"outputs": [
				{
					"internalType": "uint256",
					"name": "",
					"type": "uint256"
				}
			],
			"stateMutability": "view",
			"type": "function"
		},
		{
			"inputs": [],
			"name": "collectionSize",
			"outputs": [
				{
					"internalType": "uint256",
					"name": "",
					"type": "uint256"
				}
			],
			"stateMutability": "view",
			"type": "function"
		},
		{
			"inputs": [],
			"name": "currentPhase",
			"outputs": [
				{
					"internalType": "enum FlatLaunchpeg.Phase",
					"name": "",
					"type": "uint8"
				}
			],
			"stateMutability": "view",
			"type": "function"
		},
		{
			"inputs": [
				{
					"internalType": "uint256",
					"name": "tokenId",
					"type": "uint256"
				}
			],
			"name": "getApproved",
			"outputs": [
				{
					"internalType": "address",
					"name": "",
					"type": "address"
				}
			],
			"stateMutability": "view",
			"type": "function"
		},
		{
			"inputs": [
				{
					"internalType": "address",
					"name": "owner",
					"type": "address"
				},
				{
					"internalType": "address",
					"name": "operator",
					"type": "address"
				}
			],
			"name": "isApprovedForAll",
			"outputs": [
				{
					"internalType": "bool",
					"name": "",
					"type": "bool"
				}
			],
			"stateMutability": "view",
			"type": "function"
		},
		{
			"inputs": [],
			"name": "maxBatchSize",
			"outputs": [
				{
					"internalType": "uint256",
					"name": "",
					"type": "uint256"
				}
			],
			"stateMutability": "view",
			"type": "function"
		},
		{
			"inputs": [],
			"name": "maxPerAddressDuringMint",
			"outputs": [
				{
					"internalType": "uint256",
					"name": "",
					"type": "uint256"
				}
			],
			"stateMutability": "view",
			"type": "function"
		},
		{
			"inputs": [],
			"name": "name",
			"outputs": [
				{
					"internalType": "string",
					"name": "",
					"type": "string"
				}
			],
			"stateMutability": "view",
			"type": "function"
		},
		{
			"inputs": [
				{
					"internalType": "address",
					"name": "_owner",
					"type": "address"
				}
			],
			"name": "numberMinted",
			"outputs": [
				{
					"internalType": "uint256",
					"name": "",
					"type": "uint256"
				}
			],
			"stateMutability": "view",
			"type": "function"
		},
		{
			"inputs": [],
			"name": "owner",
			"outputs": [
				{
					"internalType": "address",
					"name": "",
					"type": "address"
				}
			],
			"stateMutability": "view",
			"type": "function"
		},
		{
			"inputs": [
				{
					"internalType": "uint256",
					"name": "tokenId",
					"type": "uint256"
				}
			],
			"name": "ownerOf",
			"outputs": [
				{
					"internalType": "address",
					"name": "",
					"type": "address"
				}
			],
			"stateMutability": "view",
			"type": "function"
		},
		{
			"inputs": [
				{
					"internalType": "uint256",
					"name": "_quantity",
					"type": "uint256"
				}
			],
			"name": "publicSaleMint",
			"outputs": [],
			"stateMutability": "payable",
			"type": "function"
		},
		{
			"inputs": [],
			"name": "publicSaleStartTime",
			"outputs": [
				{
					"internalType": "uint256",
					"name": "",
					"type": "uint256"
				}
			],
			"stateMutability": "view",
			"type": "function"
		},
		{
			"inputs": [],
			"name": "renounceOwnership",
			"outputs": [],
			"stateMutability": "nonpayable",
			"type": "function"
		},
		{
			"inputs": [
				{
					"internalType": "address",
					"name": "from",
					"type": "address"
				},
				{
					"internalType": "address",
					"name": "to",
					"type": "address"
				},
				{
					"internalType": "uint256",
					"name": "tokenId",
					"type": "uint256"
				}
			],
			"name": "safeTransferFrom",
			"outputs": [],
			"stateMutability": "nonpayable",
			"type": "function"
		},
		{
			"inputs": [
				{
					"internalType": "address",
					"name": "from",
					"type": "address"
				},
				{
					"internalType": "address",
					"name": "to",
					"type": "address"
				},
				{
					"internalType": "uint256",
					"name": "tokenId",
					"type": "uint256"
				},
				{
					"internalType": "bytes",
					"name": "data",
					"type": "bytes"
				}
			],
			"name": "safeTransferFrom",
			"outputs": [],
			"stateMutability": "nonpayable",
			"type": "function"
		},
		{
			"inputs": [],
			"name": "salePrice",
			"outputs": [
				{
					"internalType": "uint256",
					"name": "",
					"type": "uint256"
				}
			],
			"stateMutability": "view",
			"type": "function"
		},
		{
			"inputs": [
				{
					"internalType": "address",
					"name": "operator",
					"type": "address"
				},
				{
					"internalType": "bool",
					"name": "approved",
					"type": "bool"
				}
			],
			"name": "setApprovalForAll",
			"outputs": [],
			"stateMutability": "nonpayable",
			"type": "function"
		},
		{
			"inputs": [
				{
					"internalType": "bytes4",
					"name": "interfaceId",
					"type": "bytes4"
				}
			],
			"name": "supportsInterface",
			"outputs": [
				{
					"internalType": "bool",
					"name": "",
					"type": "bool"
				}
			],
			"stateMutability": "view",
			"type": "function"
		},
		{
			"inputs": [],
			"name": "symbol",
			"outputs": [
				{
					"internalType": "string",
					"name": "",
					"type": "string"
				}
			],
			"stateMutability": "view",
			"type": "function"
		},
		{
			"inputs": [
				{
					"internalType": "uint256",
					"name": "tokenId",
					"type": "uint256"
				}
			],
			"name": "tokenURI",
			"outputs": [
				{
					"internalType": "string",
					"name": "",
					"type": "string"
				}
			],
			"stateMutability": "view",
			"type": "function"
		},
		{
			"inputs": [],
			"name": "totalSupply",
			"outputs": [
				{
					"internalType": "uint256",
					"name": "",
					"type": "uint256"
				}
			],
			"stateMutability": "view",
			"type": "function"
		},
		{
			"inputs": [
				{
					"internalType": "address",
					"name": "from",
					"type": "address"
				},
				{
					"internalType": "address",
					"name": "to",
					"type": "address"
				},
				{
					"internalType": "uint256",
					"name": "tokenId",
					"type": "uint256"
				}
			],
			"name": "transferFrom",
			"outputs": [],
			"stateMutability": "nonpayable",
			"type": "function"
		},
		{
			"inputs": [
				{
					"internalType": "address",
					"name": "newOwner",
					"type": "address"
				}
			],
			"name": "transferOwnership",
			"outputs": [],
			"stateMutability": "nonpayable",
			"type": "function"
		}
	]
}